{"abi":[{"type":"function","name":"syncV2","inputs":[{"name":"v2Pools","type":"address[]","internalType":"address[]"}],"outputs":[{"name":"","type":"tuple[]","internalType":"struct BatchSync.V2PairReserves[]","components":[{"name":"pairAddr","type":"address","internalType":"address"},{"name":"reserve0","type":"uint112","internalType":"uint112"},{"name":"reserve1","type":"uint112","internalType":"uint112"}]}],"stateMutability":"view"},{"type":"function","name":"syncV3","inputs":[{"name":"pools","type":"address[]","internalType":"address[]"}],"outputs":[{"name":"","type":"tuple[]","internalType":"struct BatchSync.V3PoolState[]","components":[{"name":"poolAddr","type":"address","internalType":"address"},{"name":"tick","type":"int24","internalType":"int24"},{"name":"liquidity","type":"uint128","internalType":"uint128"},{"name":"sqrtPriceX96","type":"uint160","internalType":"uint160"}]}],"stateMutability":"view"}],"bytecode":{"object":"0x6080604052348015600f57600080fd5b506107e78061001f6000396000f3fe608060405234801561001057600080fd5b50600436106100365760003560e01c80632f09da0d1461003b578063ea43d93f14610064575b600080fd5b61004e6100493660046104ab565b610084565b60405161005b9190610520565b60405180910390f35b6100776100723660046104ab565b610233565b60405161005b919061058f565b606060008267ffffffffffffffff8111156100a1576100a16105fe565b6040519080825280602002602001820160405280156100ec57816020015b60408051606081018252600080825260208083018290529282015282526000199092019101816100bf5790505b50905060005b8381101561022b5784848281811061010c5761010c610614565b90506020020160208101906101219190610642565b82828151811061013357610133610614565b60209081029190910101516001600160a01b03909116905284848281811061015d5761015d610614565b90506020020160208101906101729190610642565b6001600160a01b0316630902f1ac6040518163ffffffff1660e01b8152600401606060405180830381865afa1580156101af573d6000803e3d6000fd5b505050506040513d601f19601f820116820180604052508101906101d39190610682565b508383815181106101e6576101e6610614565b602002602001015160200184848151811061020357610203610614565b60209081029190910101516001600160701b03928316604090910152911690526001016100f2565b509392505050565b606060008267ffffffffffffffff811115610250576102506105fe565b6040519080825280602002602001820160405280156102a257816020015b60408051608081018252600080825260208083018290529282018190526060820152825260001990920191018161026e5790505b50905060005b8381101561022b578484828181106102c2576102c2610614565b90506020020160208101906102d79190610642565b8282815181106102e9576102e9610614565b60209081029190910101516001600160a01b03909116905284848281811061031357610313610614565b90506020020160208101906103289190610642565b6001600160a01b0316633850c7bd6040518163ffffffff1660e01b815260040160e060405180830381865afa158015610365573d6000803e3d6000fd5b505050506040513d601f19601f8201168201806040525081019061038991906106e4565b50508651879350869250821090506103a3576103a3610614565b60200260200101516060018484815181106103c0576103c0610614565b60200260200101516020018260020b60020b815250826001600160a01b03166001600160a01b031681525050508484828181106103ff576103ff610614565b90506020020160208101906104149190610642565b6001600160a01b0316631a6865026040518163ffffffff1660e01b8152600401602060405180830381865afa158015610451573d6000803e3d6000fd5b505050506040513d601f19601f820116820180604052508101906104759190610788565b82828151811061048757610487610614565b60209081029190910101516001600160801b039091166040909101526001016102a8565b600080602083850312156104be57600080fd5b823567ffffffffffffffff808211156104d657600080fd5b818501915085601f8301126104ea57600080fd5b8135818111156104f957600080fd5b8660208260051b850101111561050e57600080fd5b60209290920196919550909350505050565b602080825282518282018190526000919060409081850190868401855b8281101561058257815180516001600160a01b03168552868101516001600160701b03908116888701529086015116858501526060909301929085019060010161053d565b5091979650505050505050565b602080825282518282018190526000919060409081850190868401855b8281101561058257815180516001600160a01b0390811686528782015160020b88870152868201516001600160801b0316878701526060918201511690850152608090930192908501906001016105ac565b634e487b7160e01b600052604160045260246000fd5b634e487b7160e01b600052603260045260246000fd5b6001600160a01b038116811461063f57600080fd5b50565b60006020828403121561065457600080fd5b813561065f8161062a565b9392505050565b80516001600160701b038116811461067d57600080fd5b919050565b60008060006060848603121561069757600080fd5b6106a084610666565b92506106ae60208501610666565b9150604084015163ffffffff811681146106c757600080fd5b809150509250925092565b805161ffff8116811461067d57600080fd5b600080600080600080600060e0888a0312156106ff57600080fd5b875161070a8161062a565b8097505060208801518060020b811461072257600080fd5b9550610730604089016106d2565b945061073e606089016106d2565b935061074c608089016106d2565b925060a088015160ff8116811461076257600080fd5b60c0890151909250801515811461077857600080fd5b8091505092959891949750929550565b60006020828403121561079a57600080fd5b81516001600160801b038116811461065f57600080fdfea26469706673582212201593174cb36bbb2c2fcfe386687a6dcfe8073726570467e18d080fe896fbb5c764736f6c63430008190033","linkReferences":{}},"methodIdentifiers":{"syncV2(address[])":"2f09da0d","syncV3(address[])":"ea43d93f"},"id":0}