{"abi":[{"type":"constructor","inputs":[],"stateMutability":"nonpayable"},{"type":"function","name":"ADDRESSES_PROVIDER","inputs":[],"outputs":[{"name":"","type":"address","internalType":"contract IPoolAddressesProvider"}],"stateMutability":"view"},{"type":"function","name":"POOL","inputs":[],"outputs":[{"name":"","type":"address","internalType":"contract IPool"}],"stateMutability":"view"},{"type":"function","name":"executeArbitrage","inputs":[{"name":"steps","type":"tuple[]","internalType":"struct FlashSwap.SwapStep[]","components":[{"name":"poolAddress","type":"address","internalType":"address"},{"name":"tokenIn","type":"address","internalType":"address"},{"name":"tokenOut","type":"address","internalType":"address"},{"name":"protocol","type":"uint8","internalType":"uint8"},{"name":"fee","type":"uint24","internalType":"uint24"}]},{"name":"amount","type":"uint256","internalType":"uint256"}],"outputs":[],"stateMutability":"nonpayable"},{"type":"function","name":"executeOperation","inputs":[{"name":"asset","type":"address","internalType":"address"},{"name":"amount","type":"uint256","internalType":"uint256"},{"name":"premium","type":"uint256","internalType":"uint256"},{"name":"initiator","type":"address","internalType":"address"},{"name":"params","type":"bytes","internalType":"bytes"}],"outputs":[{"name":"","type":"bool","internalType":"bool"}],"stateMutability":"nonpayable"},{"type":"function","name":"owner","inputs":[],"outputs":[{"name":"","type":"address","internalType":"address"}],"stateMutability":"view"},{"type":"function","name":"withdraw","inputs":[{"name":"token","type":"address","internalType":"address"}],"outputs":[],"stateMutability":"nonpayable"},{"type":"event","name":"Profit","inputs":[{"name":"value","type":"uint256","indexed":false,"internalType":"uint256"}],"anonymous":false}],"bytecode":{"object":"0x60e060405234801561001057600080fd5b5073e20fcbdbffc4dd138ce8b2e6fbb6cb49777ad64d60808190526040805163026b1d5f60e01b81529051829163026b1d5f9160048083019260209291908290030181865afa158015610067573d6000803e3d6000fd5b505050506040513d601f19601f8201168201806040525081019061008b91906100a1565b6001600160a01b031660a052503360c0526100d1565b6000602082840312156100b357600080fd5b81516001600160a01b03811681146100ca57600080fd5b9392505050565b60805160a05160c0516114b06101216000396000818161010f015281816105d501526106c401526000818160e801528181610151015281816103aa01526107b601526000606c01526114b06000f3fe608060405234801561001057600080fd5b50600436106100625760003560e01c80630542975c146100675780631b11d0ff146100ab57806351cff8d9146100ce5780637535d246146100e35780638da5cb5b1461010a578063e0d824df14610131575b600080fd5b61008e7f000000000000000000000000000000000000000000000000000000000000000081565b6040516001600160a01b0390911681526020015b60405180910390f35b6100be6100b9366004610dfe565b610144565b60405190151581526020016100a2565b6100e16100dc366004610eab565b6105ca565b005b61008e7f000000000000000000000000000000000000000000000000000000000000000081565b61008e7f000000000000000000000000000000000000000000000000000000000000000081565b6100e161013f366004610ecf565b610749565b6000336001600160a01b037f000000000000000000000000000000000000000000000000000000000000000016146101c35760405162461bcd60e51b815260206004820152601860248201527f43616c6c6572206d757374206265204161766520506f6f6c000000000000000060448201526064015b60405180910390fd5b6000806101d284860186611013565b90925090508760005b83518110156103865760008482815181106101f8576101f861112e565b602090810291909101810151908101516040516370a0823160e01b81523060048201529192506000916001600160a01b03909116906370a0823190602401602060405180830381865afa158015610253573d6000803e3d6000fd5b505050506040513d601f19601f820116820180604052508101906102779190611144565b90506002826060015160ff16116102ad576102a882602001518360400151836102a3866060015161082d565b610905565b610306565b6005826060015160ff16116102e1576102a8826020015183604001518385608001516102dc8760600151610a75565b610b01565b610306826020015183604001518385608001516103018760600151610c65565b610cd9565b60408083015190516370a0823160e01b81523060048201526000916001600160a01b0316906370a0823190602401602060405180830381865afa158015610351573d6000803e3d6000fd5b505050506040513d601f19601f820116820180604052508101906103759190611144565b945050600190920191506101db9050565b506000610393898b611173565b60405163095ea7b360e01b81526001600160a01b037f00000000000000000000000000000000000000000000000000000000000000008116600483015260248201839052919250908c169063095ea7b3906044016020604051808303816000875af1158015610406573d6000803e3d6000fd5b505050506040513d601f19601f8201168201806040525081019061042a919061118c565b506040516370a0823160e01b81523060048201526000906001600160a01b038d16906370a0823190602401602060405180830381865afa158015610472573d6000803e3d6000fd5b505050506040513d601f19601f820116820180604052508101906104969190611144565b9050818110156104f95760405162461bcd60e51b815260206004820152602860248201527f496e73756666696369656e742062616c616e636520746f20726570617920666c60448201526730b9b4103637b0b760c11b60648201526084016101ba565b600061050583836111ae565b905080156105b55760405163a9059cbb60e01b81526001600160a01b038681166004830152602482018390528e169063a9059cbb906044016020604051808303816000875af115801561055c573d6000803e3d6000fd5b505050506040513d601f19601f82011682018060405250810190610580919061118c565b506040518181527f357d905f1831209797df4d55d79c5c5bf1d9f7311c976afd05e13d881eab9bc89060200160405180910390a15b600196505050505050505b9695505050505050565b336001600160a01b037f000000000000000000000000000000000000000000000000000000000000000016146106425760405162461bcd60e51b815260206004820152601760248201527f4f6e6c79206f776e65722063616e20776974686472617700000000000000000060448201526064016101ba565b6040516370a0823160e01b81523060048201526000906001600160a01b038316906370a0823190602401602060405180830381865afa158015610689573d6000803e3d6000fd5b505050506040513d601f19601f820116820180604052508101906106ad9190611144565b60405163a9059cbb60e01b81526001600160a01b037f000000000000000000000000000000000000000000000000000000000000000081166004830152602482018390529192509083169063a9059cbb906044016020604051808303816000875af1158015610720573d6000803e3d6000fd5b505050506040513d601f19601f82011682018060405250810190610744919061118c565b505050565b60008383600081811061075e5761075e61112e565b905060a0020160200160208101906107769190610eab565b9050600084843360405160200161078f939291906111c1565b60408051601f19818403018152908290526310ac2ddf60e21b825291506001600160a01b037f000000000000000000000000000000000000000000000000000000000000000016906342b0b77c906107f4903090869088908790600090600401611287565b600060405180830381600087803b15801561080e57600080fd5b505af1158015610822573d6000803e3d6000fd5b505050505050505050565b60008160ff166000036108555750734752ba5dbc23f44d87826276bf6fd6b1c372ad24919050565b8160ff1660010361087b5750736bded42c6da8fbf0d2ba55b2fa120c5e0c8d7891919050565b8160ff166002036108a15750738cfe327cec66d1c090dd72bd0ff11d690c33a2eb919050565b8160ff166003036108c7575073327df1e6de05895d2ab08513aadd9313fe505d86919050565b60405162461bcd60e51b8152602060048201526013602482015272125b9d985b1a5908158c881c1c9bdd1bd8dbdb606a1b60448201526064016101ba565b60405163095ea7b360e01b81526001600160a01b0382811660048301526024820184905285169063095ea7b3906044016020604051808303816000875af1158015610954573d6000803e3d6000fd5b505050506040513d601f19601f82011682018060405250810190610978919061118c565b5060408051600280825260608201835260009260208301908036833701905050905084816000815181106109ae576109ae61112e565b60200260200101906001600160a01b031690816001600160a01b03168152505083816001815181106109e2576109e261112e565b6001600160a01b0392831660209182029290920101526040516338ed173960e01b8152908316906338ed173990610a269086906000908690309042906004016112ff565b6000604051808303816000875af1158015610a45573d6000803e3d6000fd5b505050506040513d6000823e601f3d908101601f19168201604052610a6d9190810190611371565b505050505050565b60008160ff16600403610a9d5750732626664c2603336e57b271c5c0b26f421741e481919050565b8160ff16600503610ac3575073678aa4bf4e210cf2166753e054d5b7c31cc7fa86919050565b60405162461bcd60e51b8152602060048201526013602482015272125b9d985b1a5908158cc81c1c9bdd1bd8dbdb606a1b60448201526064016101ba565b60405163095ea7b360e01b81526001600160a01b0382811660048301526024820185905286169063095ea7b3906044016020604051808303816000875af1158015610b50573d6000803e3d6000fd5b505050506040513d601f19601f82011682018060405250810190610b74919061118c565b506040805160e0810182526001600160a01b0387811682528681166020830190815262ffffff8681168486019081523060608601908152608086018a8152600060a0880181815260c0890191825298516304e45aaf60e01b815288518816600482015295518716602487015292519093166044850152518416606484015290516084830152935160a48201529251811660c48401529091908316906304e45aaf9060e4015b6020604051808303816000875af1158015610c38573d6000803e3d6000fd5b505050506040513d601f19601f82011682018060405250810190610c5c9190611144565b50505050505050565b60008160ff16600603610c8d575073fb7ef66a7e61224dd6fcd0d7d9c3be5c8b049b9f919050565b8160ff16600703610cb35750731b8eea9315be495187d873da7773a874545d9d48919050565b8160ff16600803610ac3575073be6d8f0d05cc4be24d5167a3ef062215be6d18a5919050565b60405163095ea7b360e01b81526001600160a01b0382811660048301526024820185905286169063095ea7b3906044016020604051808303816000875af1158015610d28573d6000803e3d6000fd5b505050506040513d601f19601f82011682018060405250810190610d4c919061118c565b506000604051806101000160405280876001600160a01b03168152602001866001600160a01b031681526020018462ffffff168152602001306001600160a01b03168152602001426064610da09190611173565b815260208101869052600060408083018290526060909201525163414bf38960e01b81529091506001600160a01b0383169063414bf38990610c199084906004016113fd565b6001600160a01b0381168114610dfb57600080fd5b50565b60008060008060008060a08789031215610e1757600080fd5b8635610e2281610de6565b955060208701359450604087013593506060870135610e4081610de6565b9250608087013567ffffffffffffffff811115610e5c57600080fd5b8701601f81018913610e6d57600080fd5b803567ffffffffffffffff811115610e8457600080fd5b896020828401011115610e9657600080fd5b60208201935080925050509295509295509295565b600060208284031215610ebd57600080fd5b8135610ec881610de6565b9392505050565b600080600060408486031215610ee457600080fd5b833567ffffffffffffffff811115610efb57600080fd5b8401601f81018613610f0c57600080fd5b803567ffffffffffffffff811115610f2357600080fd5b86602060a083028401011115610f3857600080fd5b6020918201979096509401359392505050565b634e487b7160e01b600052604160045260246000fd5b60405160a0810167ffffffffffffffff81118282101715610f8457610f84610f4b565b60405290565b604051601f8201601f1916810167ffffffffffffffff81118282101715610fb357610fb3610f4b565b604052919050565b600067ffffffffffffffff821115610fd557610fd5610f4b565b5060051b60200190565b803560ff81168114610ff057600080fd5b919050565b803562ffffff81168114610ff057600080fd5b8035610ff081610de6565b6000806040838503121561102657600080fd5b823567ffffffffffffffff81111561103d57600080fd5b8301601f8101851361104e57600080fd5b803561106161105c82610fbb565b610f8a565b80828252602082019150602060a0840285010192508783111561108357600080fd5b6020840193505b828410156111135760a084890312156110a257600080fd5b6110aa610f61565b84356110b581610de6565b815260208501356110c581610de6565b602082015260408501356110d881610de6565b60408201526110e960608601610fdf565b60608201526110fa60808601610ff5565b6080820152825260a0939093019260209091019061108a565b94506111259250505060208401611008565b90509250929050565b634e487b7160e01b600052603260045260246000fd5b60006020828403121561115657600080fd5b5051919050565b634e487b7160e01b600052601160045260246000fd5b808201808211156111865761118661115d565b92915050565b60006020828403121561119e57600080fd5b81518015158114610ec857600080fd5b818103818111156111865761118661115d565b6040808252810183905260008460608301825b868110156112665782356111e781610de6565b6001600160a01b03168252602083013561120081610de6565b6001600160a01b03166020830152604083013561121c81610de6565b6001600160a01b0316604083015260ff61123860608501610fdf565b16606083015262ffffff61124e60808501610ff5565b16608083015260a092830192909101906001016111d4565b506001600160a01b0385166020850152915061127f9050565b949350505050565b6001600160a01b038681168252851660208201526040810184905260a0606082018190528351908201819052600090815b818110156112d557602081870181015160c08684010152016112b8565b50600060c0828501015260c0601f19601f8301168401019150506105c0608083018461ffff169052565b600060a0820187835286602084015260a0604084015280865180835260c08501915060208801925060005b818110156113515783516001600160a01b031683526020938401939092019160010161132a565b50506001600160a01b039590951660608401525050608001529392505050565b60006020828403121561138357600080fd5b815167ffffffffffffffff81111561139a57600080fd5b8201601f810184136113ab57600080fd5b80516113b961105c82610fbb565b8082825260208201915060208360051b8501019250868311156113db57600080fd5b6020840193505b828410156105c05783518252602093840193909101906113e2565b81516001600160a01b03908116825260208084015182169083015260408084015162ffffff169083015260608084015191821690830152610100820190506080830151608083015260a083015160a083015260c083015160c083015260e083015161147360e08401826001600160a01b03169052565b509291505056fea2646970667358221220edbcffd307658e7114f445306b7d49136f61eb3433eea1bc386083769233411864736f6c634300081a0033","linkReferences":{}},"methodIdentifiers":{"ADDRESSES_PROVIDER()":"0542975c","POOL()":"7535d246","executeArbitrage((address,address,address,uint8,uint24)[],uint256)":"e0d824df","executeOperation(address,uint256,uint256,address,bytes)":"1b11d0ff","owner()":"8da5cb5b","withdraw(address)":"51cff8d9"},"id":28}