{"abi":[{"type":"receive","stateMutability":"payable"},{"type":"function","name":"quoteArbitrage","inputs":[{"name":"params","type":"tuple","internalType":"struct FlashQuoter.SwapParams","components":[{"name":"pools","type":"address[]","internalType":"address[]"},{"name":"poolVersions","type":"uint8[]","internalType":"uint8[]"},{"name":"amountIn","type":"uint256","internalType":"uint256"}]}],"outputs":[{"name":"","type":"uint256[]","internalType":"uint256[]"}],"stateMutability":"nonpayable"},{"type":"function","name":"uniswapV3SwapCallback","inputs":[{"name":"amount0Delta","type":"int256","internalType":"int256"},{"name":"amount1Delta","type":"int256","internalType":"int256"},{"name":"data","type":"bytes","internalType":"bytes"}],"outputs":[],"stateMutability":"nonpayable"}],"bytecode":{"object":"0x60808060405234601557610ef2908161001a8239f35b5f80fdfe608080604052600436101561001c575b50361561001a575f80fd5b005b5f3560e01c908163d67c8413146101bd575063fa461e331461003e575f61000f565b346101b95760607ffffffffffffffffffffffffffffffffffffffffffffffffffffffffffffffffc3601126101b95760443560043567ffffffffffffffff82116101b957366023830112156101b957816004013567ffffffffffffffff81116101b95782013660248201116101b957604090839003126101b957816020916100d760446100d060246101549701610d51565b9301610d51565b905f811315610198575f73ffffffffffffffffffffffffffffffffffffffff8092945b604051978896879586937fa9059cbb00000000000000000000000000000000000000000000000000000000855216600484016020909392919373ffffffffffffffffffffffffffffffffffffffff60408201951681520152565b0393165af1801561018d5761016557005b61001a9060203d602011610186575b61017e8183610c0f565b810190610c7d565b503d610174565b6040513d5f823e3d90fd5b5073ffffffffffffffffffffffffffffffffffffffff5f81602435946100fa565b5f80fd5b346101b95760207ffffffffffffffffffffffffffffffffffffffffffffffffffffffffffffffffc3601126101b95760043567ffffffffffffffff81116101b9578060040160607ffffffffffffffffffffffffffffffffffffffffffffffffffffffffffffffffc83360301126101b9576044820135927f23b872dd0000000000000000000000000000000000000000000000000000000081523360048201523060248201528360448201526020816064815f7342000000000000000000000000000000000000065af1801561018d57610bf2575b5061029d8180610c95565b939050600184018094116105ce576102cd6102b785610ce9565b946102c56040519687610c0f565b808652610ce9565b907fffffffffffffffffffffffffffffffffffffffffffffffffffffffffffffffe0602086019201368337845115610bc5578152915f916024909101907342000000000000000000000000000000000000065b61032a8280610c95565b9050841015610b8157610347846103418480610c95565b90610d15565b359073ffffffffffffffffffffffffffffffffffffffff82168083036101b957610375866103418787610c95565b3560ff81168091036101b9576001148015610aa9576040517f0dfe1681000000000000000000000000000000000000000000000000000000008152602081600481865afa90811561018d575f91610a8b575b5091604051947fd21220a7000000000000000000000000000000000000000000000000000000008652602086600481855afa95861561018d578b9673ffffffffffffffffffffffffffffffffffffffff915f91610a6d575b50955b16926104a3602061044c8c73ffffffffffffffffffffffffffffffffffffffff891688149a610d01565b516040517f095ea7b300000000000000000000000000000000000000000000000000000000815273ffffffffffffffffffffffffffffffffffffffff86166004820152602481019190915291829081906044820190565b03815f895af1801561018d57610a51575b501561065c575073ffffffffffffffffffffffffffffffffffffffff916040916104de8a8d610d01565b51871561063c575f886105606401000276a4955b8751908660208301528882015287815261050d606082610c0f565b8751988997889687957f128acb080000000000000000000000000000000000000000000000000000000087523060048801526024870152604486015216606484015260a0608484015260a4830190610d8d565b03925af190811561018d575f905f92610603575b5084156105fb5750925b7f800000000000000000000000000000000000000000000000000000000000000084146105ce576001935f035b6105b78589018b610d01565b52156105c757505b930192610320565b90506105bf565b7f4e487b71000000000000000000000000000000000000000000000000000000005f52601160045260245ffd5b90509261057e565b9150506040813d8211610634575b8161061e60409383610c0f565b810103126101b95760208151910151908a610574565b3d9150610611565b5f8861056073fffd8963efd1fc6a506488495d951d5263988d25956104f2565b9094915061066a888b610d01565b51906040517f0902f1ac0000000000000000000000000000000000000000000000000000000081526060816004818a5afa91821561018d575f915f936109f7575b506040517fc45a01550000000000000000000000000000000000000000000000000000000081526020816004818c5afa801561018d576106f2915f916109d9575b50610dd0565b93851561096f576040517f0dfe16810000000000000000000000000000000000000000000000000000000081526020816004818d5afa90811561018d576107b09360209284925f91610942575b50905b5f73ffffffffffffffffffffffffffffffffffffffff6040518098819682957fa9059cbb000000000000000000000000000000000000000000000000000000008452600484016020909392919373ffffffffffffffffffffffffffffffffffffffff60408201951681520152565b0393165af1801561018d576dffffffffffffffffffffffffffff946127109361ffff92610926575b50871561091f57845b88156109175750955b16029283921602019182156108ea576dffffffffffffffffffffffffffff16020481156108e4575f5b82156108dd5781955b60405190602061082c8184610c0f565b5f83527fffffffffffffffffffffffffffffffffffffffffffffffffffffffffffffffe08101903690840137803b156101b9576108b4975f80946040519a8b95869485937f022c0d9f00000000000000000000000000000000000000000000000000000000855260048501526024840152306044840152608060648401526084830190610d8d565b03925af194851561018d576001956108cd575b506105ab565b5f6108d791610c0f565b8a6108c7565b5f9561081c565b80610813565b7f4e487b71000000000000000000000000000000000000000000000000000000005f52601260045260245ffd5b9050956107ea565b80946107e1565b61093d9060203d81116101865761017e8183610c0f565b6107d8565b6109629150843d8111610968575b61095a8183610c0f565b810190610d25565b5f61073f565b503d610950565b6040517fd21220a70000000000000000000000000000000000000000000000000000000081526020816004818d5afa90811561018d576107b09360209284925f916109bc575b5090610742565b6109d39150843d81116109685761095a8183610c0f565b5f6109b5565b6109f1915060203d81116109685761095a8183610c0f565b8f6106ec565b915091506060813d8211610a49575b81610a1360609383610c0f565b810103126101b957610a2481610d72565b6040610a3260208401610d72565b92015163ffffffff8116036101b95790918d6106ab565b3d9150610a06565b610a689060203d81116101865761017e8183610c0f565b6104b4565b610a85915060203d81116109685761095a8183610c0f565b8d61041f565b610aa3915060203d81116109685761095a8183610c0f565b8a6103c7565b6040517f0dfe1681000000000000000000000000000000000000000000000000000000008152602081600481865afa90811561018d575f91610b63575b5091604051947fd21220a7000000000000000000000000000000000000000000000000000000008652602086600481855afa95861561018d578b9673ffffffffffffffffffffffffffffffffffffffff915f91610b45575b5095610422565b610b5d915060203d81116109685761095a8183610c0f565b8d610b3e565b610b7b915060203d81116109685761095a8183610c0f565b8a610ae6565b8486604051918291602083019060208452518091526040830191905f5b818110610bac575050500390f35b8251845285945060209384019390920191600101610b9e565b7f4e487b71000000000000000000000000000000000000000000000000000000005f52603260045260245ffd5b610c0a9060203d6020116101865761017e8183610c0f565b610292565b90601f7fffffffffffffffffffffffffffffffffffffffffffffffffffffffffffffffe0910116810190811067ffffffffffffffff821117610c5057604052565b7f4e487b71000000000000000000000000000000000000000000000000000000005f52604160045260245ffd5b908160209103126101b9575180151581036101b95790565b9035907fffffffffffffffffffffffffffffffffffffffffffffffffffffffffffffffe1813603018212156101b9570180359067ffffffffffffffff82116101b957602001918160051b360383136101b957565b67ffffffffffffffff8111610c505760051b60200190565b8051821015610bc55760209160051b010190565b9190811015610bc55760051b0190565b908160209103126101b9575173ffffffffffffffffffffffffffffffffffffffff811681036101b95790565b359073ffffffffffffffffffffffffffffffffffffffff821682036101b957565b51906dffffffffffffffffffffffffffff821682036101b957565b907fffffffffffffffffffffffffffffffffffffffffffffffffffffffffffffffe0601f602080948051918291828752018686015e5f8582860101520116010190565b73ffffffffffffffffffffffffffffffffffffffff16738909dc15e40173ff4699343b6eb8132c65e18ec68114610eb5577371524b4f93c58fcbf659783284e38825f06228598114610eb5577302a84c1b3bbd7401a5f7fa98a384ebc70bb5749e8114610eae577304c9f118d21e8b767d2e50c946f0cc9f6c3673008114610eb55773fda619b6d20975be80a10332cd39b9a4b0faa8bb8114610eae5773591f122d1df761e616c13d265006fcbf4c6d65518114610eae57733e84d913803b02a4a7f027165e8ca42c14c0fde714610ea8576126f290565b61270090565b506126f790565b506126f29056fea2646970667358221220b1102093e1620b20c68834e1148e907a9193b21a8c39e8578d6d8280634f572f64736f6c634300081c0033","linkReferences":{}},"methodIdentifiers":{"quoteArbitrage((address[],uint8[],uint256))":"d67c8413","uniswapV3SwapCallback(int256,int256,bytes)":"fa461e33"},"id":26}