{"abi":[{"type":"constructor","inputs":[{"name":"_pool","type":"address","internalType":"address"},{"name":"_routers","type":"address[]","internalType":"address[]"}],"stateMutability":"nonpayable"},{"type":"receive","stateMutability":"payable"},{"type":"function","name":"executeArbitrage","inputs":[{"name":"steps","type":"tuple[]","internalType":"struct FlashSwap.SwapStep[]","components":[{"name":"poolAddress","type":"address","internalType":"address"},{"name":"tokenIn","type":"address","internalType":"address"},{"name":"tokenOut","type":"address","internalType":"address"},{"name":"protocol","type":"uint8","internalType":"uint8"},{"name":"fee","type":"uint24","internalType":"uint24"}]},{"name":"amount","type":"uint256","internalType":"uint256"}],"outputs":[],"stateMutability":"nonpayable"},{"type":"function","name":"executeOperation","inputs":[{"name":"asset","type":"address","internalType":"address"},{"name":"amount","type":"uint256","internalType":"uint256"},{"name":"premium","type":"uint256","internalType":"uint256"},{"name":"","type":"address","internalType":"address"},{"name":"params","type":"bytes","internalType":"bytes"}],"outputs":[{"name":"","type":"bool","internalType":"bool"}],"stateMutability":"nonpayable"},{"type":"function","name":"rescueTokens","inputs":[{"name":"token","type":"address","internalType":"address"}],"outputs":[],"stateMutability":"nonpayable"}],"bytecode":{"object":"0x60a060405234801561001057600080fd5b5060405161165838038061165883398101604081905261002f91610103565b6001600160a01b038216608052805161004f906000906020840190610057565b5050506101e6565b8280548282559060005260206000209081019282156100ac579160200282015b828111156100ac57825182546001600160a01b0319166001600160a01b03909116178255602090920191600190910190610077565b506100b89291506100bc565b5090565b5b808211156100b857600081556001016100bd565b80516001600160a01b03811681146100e857600080fd5b919050565b634e487b7160e01b600052604160045260246000fd5b6000806040838503121561011657600080fd5b61011f836100d1565b60208401519092506001600160401b0381111561013b57600080fd5b8301601f8101851361014c57600080fd5b80516001600160401b03811115610165576101656100ed565b604051600582901b90603f8201601f191681016001600160401b0381118282101715610193576101936100ed565b6040529182526020818401810192908101888411156101b157600080fd5b6020850194505b838510156101d7576101c9856100d1565b8152602094850194016101b8565b50809450505050509250929050565b60805161144961020f600039600081816101f4015281816103a401526104c901526114496000f3fe6080604052600436106100375760003560e01c8062ae3bf8146100435780631b11d0ff14610065578063e0d824df1461009957600080fd5b3661003e57005b600080fd5b34801561004f57600080fd5b5061006361005e366004610bfd565b6100b9565b005b34801561007157600080fd5b50610085610080366004610c1a565b6101e7565b604051901515815260200160405180910390f35b3480156100a557600080fd5b506100636100b4366004610cc7565b6104c7565b6040516370a0823160e01b81523060048201526000906001600160a01b038316906370a0823190602401602060405180830381865afa158015610100573d6000803e3d6000fd5b505050506040513d601f19601f820116820180604052508101906101249190610d43565b9050600081116101715760405162461bcd60e51b81526020600482015260136024820152724e6f20746f6b656e7320746f2072657363756560681b60448201526064015b60405180910390fd5b60405163a9059cbb60e01b8152336004820152602481018290526001600160a01b0383169063a9059cbb906044016020604051808303816000875af11580156101be573d6000803e3d6000fd5b505050506040513d601f19601f820116820180604052508101906101e29190610d5c565b505050565b6000336001600160a01b037f000000000000000000000000000000000000000000000000000000000000000016146102615760405162461bcd60e51b815260206004820152601b60248201527f43616c6c6572206d757374206265206c656e64696e6720706f6f6c00000000006044820152606401610168565b60008061027084860186610e46565b81519193509150889060005b818110156102b1576102a785828151811061029957610299610f61565b6020026020010151846105a0565b925060010161027c565b5060006102be8a8c610f8d565b6040516370a0823160e01b81523060048201529091506000906001600160a01b038e16906370a0823190602401602060405180830381865afa158015610308573d6000803e3d6000fd5b505050506040513d601f19601f8201168201806040525081019061032c9190610d43565b90508181101561038d5760405162461bcd60e51b815260206004820152602660248201527f496e73756666696369656e742066756e647320746f20726570617920666c617360448201526534103637b0b760d11b6064820152608401610168565b60405163095ea7b360e01b81526001600160a01b037f000000000000000000000000000000000000000000000000000000000000000081166004830152602482018490528e169063095ea7b3906044016020604051808303816000875af11580156103fc573d6000803e3d6000fd5b505050506040513d601f19601f820116820180604052508101906104209190610d5c565b50818111156104b4576001600160a01b038d1663a9059cbb866104438585610fa0565b6040516001600160e01b031960e085901b1681526001600160a01b03909216600483015260248201526044016020604051808303816000875af115801561048e573d6000803e3d6000fd5b505050506040513d601f19601f820116820180604052508101906104b29190610d5c565b505b5060019c9b505050505050505050505050565b7f00000000000000000000000000000000000000000000000000000000000000006001600160a01b03166342b0b77c308585600081811061050a5761050a610f61565b905060a0020160200160208101906105229190610bfd565b8487873360405160200161053893929190610fb3565b60405160208183030381529060405260006040518663ffffffff1660e01b81526004016105699594939291906110bf565b600060405180830381600087803b15801561058357600080fd5b505af1158015610597573d6000803e3d6000fd5b50505050505050565b600082602001516001600160a01b031663095ea7b36000856060015160ff16815481106105cf576105cf610f61565b60009182526020909120015460405160e083901b6001600160e01b03191681526001600160a01b039091166004820152602481018590526044016020604051808303816000875af1158015610628573d6000803e3d6000fd5b505050506040513d601f19601f8201168201806040525081019061064c9190610d5c565b506004836060015160ff16101561066e5761066783836106b1565b90506106ab565b6008836060015160ff161015610688576106678383610808565b826060015160ff166008036106a15761066783836109ce565b6106678383610adc565b92915050565b604080516002808252606082018352600092839291906020830190803683370190505090508360200151816000815181106106ee576106ee610f61565b60200260200101906001600160a01b031690816001600160a01b03168152505083604001518160018151811061072657610726610f61565b60200260200101906001600160a01b031690816001600160a01b0316815250506000846060015160ff168154811061076057610760610f61565b60009182526020822001546040516338ed173960e01b81526001600160a01b03909116916338ed17399161079e918791869030904290600401611108565b6000604051808303816000875af11580156107bd573d6000803e3d6000fd5b505050506040513d6000823e601f3d908101601f191682016040526107e5919081019061117a565b6001815181106107f7576107f7610f61565b602002602001015191505092915050565b60006006836060015160ff16101561092c576000836060015160ff168154811061083457610834610f61565b6000918252602080832091909101546040805160e081018252878401516001600160a01b0390811682528883015181169482019485526080808a015162ffffff90811684860190815230606086019081529285018b815260a086018a815260c087019a8b5296516304e45aaf60e01b815295518516600487015297518416602486015251166044840152518116606483015293516084820152905160a48201529251821660c484015216906304e45aaf9060e4015b6020604051808303816000875af1158015610908573d6000803e3d6000fd5b505050506040513d601f19601f820116820180604052508101906106679190610d43565b6000836060015160ff168154811061094657610946610f61565b60009182526020808320909101546040805161010081018252878401516001600160a01b0390811682528883015181169482019490945260808089015162ffffff1682840152306060830152429082015260a0810187905260c0810185905260e08101949094525163414bf38960e01b815291169163414bf389916108e99190600401611210565b604080516001808252818301909252600091829190816020015b6040805160808101825260008082526020808301829052928201819052606082015282526000199092019101816109e8579050509050604051806080016040528085602001516001600160a01b0316815260200185604001516001600160a01b0316815260200160001515815260200160006001600160a01b031681525081600081518110610a7957610a79610f61565b60200260200101819052506000846060015160ff1681548110610a9e57610a9e610f61565b600091825260208220015460405163cac88ea960e01b81526001600160a01b039091169163cac88ea99161079e91879186903090429060040161128d565b600080836060015160ff1681548110610af757610af7610f61565b6000918252602080832091909101546040805160c08101825287516001600160a01b0390811682528185018690528885015181168284015288830151811660608084019190915260808084018a90528451808801865288815260a0850152845190810185523080825296810188905280850196909652850186905291516352bbbe2960e01b815291909216936352bbbe2993610b9b93929091904290600401611335565b6020604051808303816000875af1158015610bba573d6000803e3d6000fd5b505050506040513d601f19601f82011682018060405250810190610bde9190610d43565b9392505050565b6001600160a01b0381168114610bfa57600080fd5b50565b600060208284031215610c0f57600080fd5b8135610bde81610be5565b60008060008060008060a08789031215610c3357600080fd5b8635610c3e81610be5565b955060208701359450604087013593506060870135610c5c81610be5565b9250608087013567ffffffffffffffff811115610c7857600080fd5b8701601f81018913610c8957600080fd5b803567ffffffffffffffff811115610ca057600080fd5b896020828401011115610cb257600080fd5b60208201935080925050509295509295509295565b600080600060408486031215610cdc57600080fd5b833567ffffffffffffffff811115610cf357600080fd5b8401601f81018613610d0457600080fd5b803567ffffffffffffffff811115610d1b57600080fd5b86602060a083028401011115610d3057600080fd5b6020918201979096509401359392505050565b600060208284031215610d5557600080fd5b5051919050565b600060208284031215610d6e57600080fd5b81518015158114610bde57600080fd5b634e487b7160e01b600052604160045260246000fd5b60405160a0810167ffffffffffffffff81118282101715610db757610db7610d7e565b60405290565b604051601f8201601f1916810167ffffffffffffffff81118282101715610de657610de6610d7e565b604052919050565b600067ffffffffffffffff821115610e0857610e08610d7e565b5060051b60200190565b803560ff81168114610e2357600080fd5b919050565b803562ffffff81168114610e2357600080fd5b8035610e2381610be5565b60008060408385031215610e5957600080fd5b823567ffffffffffffffff811115610e7057600080fd5b8301601f81018513610e8157600080fd5b8035610e94610e8f82610dee565b610dbd565b80828252602082019150602060a08402850101925087831115610eb657600080fd5b6020840193505b82841015610f465760a08489031215610ed557600080fd5b610edd610d94565b8435610ee881610be5565b81526020850135610ef881610be5565b60208201526040850135610f0b81610be5565b6040820152610f1c60608601610e12565b6060820152610f2d60808601610e28565b6080820152825260a09390930192602090910190610ebd565b9450610f589250505060208401610e3b565b90509250929050565b634e487b7160e01b600052603260045260246000fd5b634e487b7160e01b600052601160045260246000fd5b808201808211156106ab576106ab610f77565b818103818111156106ab576106ab610f77565b6040808252810183905260008460608301825b86811015611058578235610fd981610be5565b6001600160a01b031682526020830135610ff281610be5565b6001600160a01b03166020830152604083013561100e81610be5565b6001600160a01b0316604083015260ff61102a60608501610e12565b16606083015262ffffff61104060808501610e28565b16608083015260a09283019290910190600101610fc6565b506001600160a01b038516602085015291506110719050565b949350505050565b6000815180845260005b8181101561109f57602081850181015186830182015201611083565b506000602082860101526020601f19601f83011685010191505092915050565b6001600160a01b038681168252851660208201526040810184905260a0606082018190526000906110f290830185611079565b905061ffff831660808301529695505050505050565b600060a0820187835286602084015260a0604084015280865180835260c08501915060208801925060005b8181101561115a5783516001600160a01b0316835260209384019390920191600101611133565b50506001600160a01b039590951660608401525050608001529392505050565b60006020828403121561118c57600080fd5b815167ffffffffffffffff8111156111a357600080fd5b8201601f810184136111b457600080fd5b80516111c2610e8f82610dee565b8082825260208201915060208360051b8501019250868311156111e457600080fd5b6020840193505b828410156112065783518252602093840193909101906111eb565b9695505050505050565b81516001600160a01b03908116825260208084015182169083015260408084015162ffffff169083015260608084015191821690830152610100820190506080830151608083015260a083015160a083015260c083015160c083015260e083015161128660e08401826001600160a01b03169052565b5092915050565b600060a0820187835286602084015260a0604084015280865180835260c08501915060208801925060005b8181101561130b57835180516001600160a01b03908116855260208083015182168187015260408084015115159087015260609283015190911691850191909152909301926080909201916001016112b8565b50506001600160a01b038616606085015291506113259050565b8260808301529695505050505050565b60e08152845160e0820152600060208601516002811061136557634e487b7160e01b600052602160045260246000fd5b61010083015260408601516001600160a01b0316610120830152606086015161139a6101408401826001600160a01b03169052565b50608086015161016083015260a086015160c06101808401526113c16101a0840182611079565b915050611401602083018680516001600160a01b039081168352602080830151151590840152604080830151909116908301526060908101511515910152565b60a082019390935260c001529291505056fea264697066735822122076d7ba0d8e1007d52989fd357d80f2a867a3afbb9d196d26f7cb465ce7a5490264736f6c634300081b0033","linkReferences":{}},"methodIdentifiers":{"executeArbitrage((address,address,address,uint8,uint24)[],uint256)":"e0d824df","executeOperation(address,uint256,uint256,address,bytes)":"1b11d0ff","rescueTokens(address)":"00ae3bf8"},"id":21}