{"abi":[{"type":"constructor","inputs":[],"stateMutability":"nonpayable"},{"type":"function","name":"factory","inputs":[],"outputs":[{"name":"","type":"address","internalType":"contract IUniswapV2Factory"}],"stateMutability":"view"},{"type":"function","name":"flashSwap","inputs":[{"name":"amountIn","type":"uint256","internalType":"uint256"},{"name":"path","type":"address[]","internalType":"address[]"}],"outputs":[],"stateMutability":"nonpayable"},{"type":"function","name":"router","inputs":[],"outputs":[{"name":"","type":"address","internalType":"contract IUniswapV2Router02"}],"stateMutability":"view"},{"type":"function","name":"uniswapV2Call","inputs":[{"name":"sender","type":"address","internalType":"address"},{"name":"amount0","type":"uint256","internalType":"uint256"},{"name":"amount1","type":"uint256","internalType":"uint256"},{"name":"data","type":"bytes","internalType":"bytes"}],"outputs":[],"stateMutability":"nonpayable"}],"bytecode":{"object":"0x60c0604052348015600f57600080fd5b50735c69bee701ef814a2b6a3edd4b1652cb9cc5aa6f608052737a250d5630b4cf539739df2c5dacb4c659f2488d60a05260805160a051611c4e61008c6000396000818160c1015281816104ba015281816109bf01526112fb015260008181607e0152818160fb015281816102e30152610de10152611c4e6000f3fe608060405234801561001057600080fd5b506004361061004c5760003560e01c806310d1e85c146100515780633b16f60314610066578063c45a015514610079578063f887ea40146100bc575b600080fd5b61006461005f36600461149b565b6100e3565b005b610064610074366004611531565b610d8c565b6100a07f000000000000000000000000000000000000000000000000000000000000000081565b6040516001600160a01b03909116815260200160405180910390f35b6100a07f000000000000000000000000000000000000000000000000000000000000000081565b600080806100f384860186611617565b9250925092507f00000000000000000000000000000000000000000000000000000000000000006001600160a01b031663e6a439058260008151811061013b5761013b6116da565b602002602001015183600181518110610156576101566116da565b60200260200101516040518363ffffffff1660e01b81526004016101909291906001600160a01b0392831681529116602082015260400190565b602060405180830381865afa1580156101ad573d6000803e3d6000fd5b505050506040513d601f19601f820116820180604052508101906101d191906116f0565b6001600160a01b0316336001600160a01b0316146102255760405162461bcd60e51b815260206004820152600c60248201526b155b985d5d1a1bdc9a5e995960a21b60448201526064015b60405180910390fd5b6102636040518060400160405280601781526020017f756e6973776170563243616c6c207472696767657265640000000000000000008152506111c4565b6102956040518060400160405280601081526020016f27b934b3b4b730b61039b2b73232b91d60811b8152508461120a565b6102c66040518060400160405280600f81526020016e24b734ba34b0b61030b6b7bab73a1d60891b81525083611253565b8160015b600183516102d8919061172a565b8110156109a45760007f00000000000000000000000000000000000000000000000000000000000000006001600160a01b031663e6a43905858481518110610322576103226116da565b6020026020010151868560016103389190611743565b81518110610348576103486116da565b60200260200101516040518363ffffffff1660e01b81526004016103829291906001600160a01b0392831681529116602082015260400190565b602060405180830381865afa15801561039f573d6000803e3d6000fd5b505050506040513d601f19601f820116820180604052508101906103c391906116f0565b90506001600160a01b0381166104115760405162461bcd60e51b815260206004820152601360248201527214185a5c88191bd95cc81b9bdd08195e1a5cdd606a1b604482015260640161021c565b600080826001600160a01b0316630902f1ac6040518163ffffffff1660e01b8152600401606060405180830381865afa158015610452573d6000803e3d6000fd5b505050506040513d601f19601f820116820180604052508101906104769190611772565b50604051630153543560e21b8152600481018890526001600160701b0392831660248201819052919092166044830181905290935091506000906001600160a01b037f0000000000000000000000000000000000000000000000000000000000000000169063054d50d490606401602060405180830381865afa158015610501573d6000803e3d6000fd5b505050506040513d601f19601f8201168201806040525081019061052591906117c2565b9050610567604051806040016040528060048152602001630537761760e41b81525086604051806040016040528060018152602001601d60f91b815250611298565b6105ad6040518060400160405280600b81526020016a10102a37b5b2b71024b71d60a91b8152508887815181106105a0576105a06116da565b602002602001015161120a565b60408051808201909152600c81526b10102a37b5b2b71027baba1d60a11b60208201526105f090886105e0886001611743565b815181106105a0576105a06116da565b61061e6040518060400160405280600c81526020016b101020b6b7bab73a1024b71d60a11b81525087611253565b61065660405180604001604052806016815260200175101022bc3832b1ba32b21020b6b7bab73a1027baba1d60511b81525082611253565b600087868151811061066a5761066a6116da565b60209081029190910101516040516370a0823160e01b81523060048201526001600160a01b03909116906370a0823190602401602060405180830381865afa1580156106ba573d6000803e3d6000fd5b505050506040513d601f19601f820116820180604052508101906106de91906117c2565b90506107186040518060400160405280601681526020017510102130b630b731b2903132b337b9329039bbb0b81d60511b81525082611253565b868110156107685760405162461bcd60e51b815260206004820152601d60248201527f496e73756666696369656e742062616c616e636520666f722073776170000000604482015260640161021c565b61078b88878151811061077d5761077d6116da565b6020026020010151886112e4565b604080516000808252602082019283905263022c0d9f60e01b9092526001600160a01b0387169163022c0d9f916107ca9190869030906024810161182b565b600060405180830381600087803b1580156107e457600080fd5b505af19250505080156107f5575060015b61089357610801611862565b806308c379a003610887575061081561187e565b806108205750610889565b6108506040518060400160405280600e81526020016d101029bbb0b8103330b4b632b21d60911b815250826113cc565b806040516020016108619190611908565b60408051601f198184030181529082905262461bcd60e51b825261021c9160040161193d565b505b3d6000803e3d6000fd5b6108c560405180604001604052806011815260200170080814ddd85c081cdd58d8d95cdcd99d5b607a1b8152506111c4565b6000886108d3886001611743565b815181106108e3576108e36116da565b60209081029190910101516040516370a0823160e01b81523060048201526001600160a01b03909116906370a0823190602401602060405180830381865afa158015610933573d6000803e3d6000fd5b505050506040513d601f19601f8201168201806040525081019061095791906117c2565b90506109906040518060400160405280601581526020017410102130b630b731b29030b33a32b91039bbb0b81d60591b81525082611253565b5090955050600190930192506102ca915050565b506040516307c0329d60e21b81526000906001600160a01b037f00000000000000000000000000000000000000000000000000000000000000001690631f00ca74906109f69085908790600401611950565b600060405180830381865afa158015610a13573d6000803e3d6000fd5b505050506040513d6000823e601f3d908101601f19168201604052610a3b91908101906119a9565b600081518110610a4d57610a4d6116da565b60200260200101519050610a896040518060400160405280601081526020016f20b6b7bab73a103a37903932b830bc9d60811b81525082611253565b6000610a95828461172a565b9050610acb6040518060400160405280601281526020017121b0b631bab630ba32b210383937b334ba1d60711b81525082611253565b60008460018651610adc919061172a565b81518110610aec57610aec6116da565b60209081029190910101516040516370a0823160e01b81523060048201529091506000906001600160a01b038316906370a0823190602401602060405180830381865afa158015610b41573d6000803e3d6000fd5b505050506040513d601f19601f82011682018060405250810190610b6591906117c2565b9050610ba66040518060400160405280601f81526020017f436f6e74726163742062616c616e6365206f66206c61737420746f6b656e3a0081525082611253565b82811015610c075760405162461bcd60e51b815260206004820152602860248201527f496e73756666696369656e742062616c616e636520666f722070726f666974206044820152673a3930b739b332b960c11b606482015260840161021c565b60405163a9059cbb60e01b81526001600160a01b0389811660048301526024820185905283169063a9059cbb906044016020604051808303816000875af1158015610c56573d6000803e3d6000fd5b505050506040513d601f19601f82011682018060405250810190610c7a9190611a45565b50610c9c604051806060016040528060258152602001611bd3602591396111c4565b610cc086600081518110610cb257610cb26116da565b6020026020010151856112e4565b85600081518110610cd357610cd36116da565b602090810291909101015160405163a9059cbb60e01b8152336004820152602481018690526001600160a01b039091169063a9059cbb906044016020604051808303816000875af1158015610d2c573d6000803e3d6000fd5b505050506040513d601f19601f82011682018060405250810190610d509190611a45565b50610d7d6040518060400160405280600b81526020016a131bd85b881c995c185a5960aa1b8152506111c4565b50505050505050505050505050565b6002811015610ddd5760405162461bcd60e51b815260206004820181905260248201527f50617468206d7573742068617665206174206c65617374203220746f6b656e73604482015260640161021c565b60007f00000000000000000000000000000000000000000000000000000000000000006001600160a01b031663e6a4390584846000818110610e2157610e216116da565b9050602002016020810190610e369190611a67565b85856001818110610e4957610e496116da565b9050602002016020810190610e5e9190611a67565b6040516001600160e01b031960e085901b1681526001600160a01b03928316600482015291166024820152604401602060405180830381865afa158015610ea9573d6000803e3d6000fd5b505050506040513d601f19601f82011682018060405250810190610ecd91906116f0565b90506001600160a01b038116610f255760405162461bcd60e51b815260206004820152601960248201527f4669727374207061697220646f6573206e6f7420657869737400000000000000604482015260640161021c565b610f47604051806060016040528060218152602001611bf86021913985611253565b610f9c6040518060400160405280600c81526020016b2334b939ba103a37b5b2b71d60a11b81525084846000818110610f8257610f826116da565b9050602002016020810190610f979190611a67565b61120a565b60408051808201909152600b81526a2630b9ba103a37b5b2b71d60a91b6020820152610fde908484610fcf60018261172a565b818110610f8257610f826116da565b61100f83836000818110610ff457610ff46116da565b90506020020160208101906110099190611a67565b856112e4565b6000338585856040516020016110289493929190611a84565b604051602081830303815290604052905060008484600181811061104e5761104e6116da565b90506020020160208101906110639190611a67565b6001600160a01b03168585600081811061107f5761107f6116da565b90506020020160208101906110949190611a67565b6001600160a01b0316106110a95760006110ab565b855b90506000858560018181106110c2576110c26116da565b90506020020160208101906110d79190611a67565b6001600160a01b0316868660008181106110f3576110f36116da565b90506020020160208101906111089190611a67565b6001600160a01b03161061111c578661111f565b60005b90506111576040518060400160405280601481526020017321b0b63634b7339039bbb0b81037b7103830b4b960611b8152508561120a565b60405163022c0d9f60e01b81526001600160a01b0385169063022c0d9f9061118990859085903090899060040161182b565b600060405180830381600087803b1580156111a357600080fd5b505af11580156111b7573d6000803e3d6000fd5b5050505050505050505050565b611207816040516024016111d8919061193d565b60408051601f198184030181529190526020810180516001600160e01b031663104c13eb60e21b17905261140d565b50565b61124f8282604051602401611220929190611ae7565b60408051601f198184030181529190526020810180516001600160e01b031663319af33360e01b17905261140d565b5050565b61124f8282604051602401611269929190611b11565b60408051601f198184030181529190526020810180516001600160e01b03166309710a9d60e41b17905261140d565b6112df8383836040516024016112b093929190611b33565b60408051601f198184030181529190526020810180516001600160e01b031663a3f5c73960e01b17905261140d565b505050565b60405163095ea7b360e01b81526001600160a01b037f0000000000000000000000000000000000000000000000000000000000000000811660048301526024820183905283169063095ea7b3906044016020604051808303816000875af1158015611353573d6000803e3d6000fd5b505050506040513d601f19601f820116820180604052508101906113779190611a45565b5061124f6040518060400160405280600e81526020016d20b8383937bb32b2103a37b5b2b760911b815250836040518060400160405280600a815260200169199bdc88185b5bdd5b9d60b21b81525084611416565b61124f82826040516024016113e2929190611b5e565b60408051601f198184030181529190526020810180516001600160e01b0316634b5c427760e01b1790525b61120781611465565b61145f848484846040516024016114309493929190611b8c565b60408051601f198184030181529190526020810180516001600160e01b0316638f624be960e01b17905261140d565b50505050565b80516a636f6e736f6c652e6c6f67602083016000808483855afa5050505050565b6001600160a01b038116811461120757600080fd5b6000806000806000608086880312156114b357600080fd5b85356114be81611486565b94506020860135935060408601359250606086013567ffffffffffffffff808211156114e957600080fd5b818801915088601f8301126114fd57600080fd5b81358181111561150c57600080fd5b89602082850101111561151e57600080fd5b9699959850939650602001949392505050565b60008060006040848603121561154657600080fd5b83359250602084013567ffffffffffffffff8082111561156557600080fd5b818601915086601f83011261157957600080fd5b81358181111561158857600080fd5b8760208260051b850101111561159d57600080fd5b6020830194508093505050509250925092565b634e487b7160e01b600052604160045260246000fd5b601f8201601f1916810167ffffffffffffffff811182821017156115ec576115ec6115b0565b6040525050565b600067ffffffffffffffff82111561160d5761160d6115b0565b5060051b60200190565b60008060006060848603121561162c57600080fd5b833561163781611486565b92506020848101359250604085013567ffffffffffffffff81111561165b57600080fd5b8501601f8101871361166c57600080fd5b8035611677816115f3565b60405161168482826115c6565b82815260059290921b83018401918481019150898311156116a457600080fd5b928401925b828410156116cb5783356116bc81611486565b825292840192908401906116a9565b80955050505050509250925092565b634e487b7160e01b600052603260045260246000fd5b60006020828403121561170257600080fd5b815161170d81611486565b9392505050565b634e487b7160e01b600052601160045260246000fd5b8181038181111561173d5761173d611714565b92915050565b8082018082111561173d5761173d611714565b80516001600160701b038116811461176d57600080fd5b919050565b60008060006060848603121561178757600080fd5b61179084611756565b925061179e60208501611756565b9150604084015163ffffffff811681146117b757600080fd5b809150509250925092565b6000602082840312156117d457600080fd5b5051919050565b60005b838110156117f65781810151838201526020016117de565b50506000910152565b600081518084526118178160208601602086016117db565b601f01601f19169290920160200192915050565b84815283602082015260018060a01b038316604082015260806060820152600061185860808301846117ff565b9695505050505050565b600060033d111561187b5760046000803e5060005160e01c5b90565b600060443d101561188c5790565b6040516003193d81016004833e81513d67ffffffffffffffff81602484011181841117156118bc57505050505090565b82850191508151818111156118d45750505050505090565b843d87010160208285010111156118ee5750505050505090565b6118fd602082860101876115c6565b509095945050505050565b6c029bbb0b8103330b4b632b21d1609d1b81526000825161193081600d8501602087016117db565b91909101600d0192915050565b60208152600061170d60208301846117ff565b60006040820184835260206040602085015281855180845260608601915060208701935060005b8181101561199c5784516001600160a01b031683529383019391830191600101611977565b5090979650505050505050565b600060208083850312156119bc57600080fd5b825167ffffffffffffffff8111156119d357600080fd5b8301601f810185136119e457600080fd5b80516119ef816115f3565b6040516119fc82826115c6565b82815260059290921b8301840191848101915087831115611a1c57600080fd5b928401925b82841015611a3a57835182529284019290840190611a21565b979650505050505050565b600060208284031215611a5757600080fd5b8151801515811461170d57600080fd5b600060208284031215611a7957600080fd5b813561170d81611486565b6001600160a01b03858116825260208083018690526060604084018190528301849052600091859160808501845b87811015611ad9578435611ac581611486565b841682529382019390820190600101611ab2565b509998505050505050505050565b604081526000611afa60408301856117ff565b905060018060a01b03831660208301529392505050565b604081526000611b2460408301856117ff565b90508260208301529392505050565b606081526000611b4660608301866117ff565b846020840152828103604084015261185881856117ff565b604081526000611b7160408301856117ff565b8281036020840152611b8381856117ff565b95945050505050565b608081526000611b9f60808301876117ff565b6001600160a01b03861660208401528281036040840152611bc081866117ff565b9150508260608301529594505050505056fe50726f666974207472616e7366657272656420746f206f726967696e616c2073656e646572496e6974696174696e6720666c6173682073776170207769746820616d6f756e74a2646970667358221220721190cfdf4c0220483ac37f4b4287d03981637d9f92fe4cfae0554419284f3e64736f6c63430008190033","linkReferences":{}},"methodIdentifiers":{"factory()":"c45a0155","flashSwap(uint256,address[])":"3b16f603","router()":"f887ea40","uniswapV2Call(address,uint256,uint256,bytes)":"10d1e85c"},"id":6}