{"abi":[{"type":"receive","stateMutability":"payable"},{"type":"function","name":"executeArbitrage","inputs":[{"name":"steps","type":"tuple[]","internalType":"struct FlashQuoter.SwapStep[]","components":[{"name":"poolAddress","type":"address","internalType":"address"},{"name":"tokenIn","type":"address","internalType":"address"},{"name":"tokenOut","type":"address","internalType":"address"},{"name":"protocol","type":"uint8","internalType":"uint8"},{"name":"fee","type":"uint24","internalType":"uint24"}]},{"name":"amount","type":"uint256","internalType":"uint256"}],"outputs":[{"name":"","type":"uint256","internalType":"uint256"}],"stateMutability":"nonpayable"},{"type":"event","name":"Profit","inputs":[{"name":"value","type":"uint256","indexed":false,"internalType":"uint256"}],"anonymous":false}],"bytecode":{"object":"0x6080604052348015600f57600080fd5b506111878061001f6000396000f3fe6080604052600436106100225760003560e01c8063e0d824df1461002e57600080fd5b3661002957005b600080fd5b34801561003a57600080fd5b5061004e610049366004610d73565b610060565b60405190815260200160405180910390f35b600081815b848110156102db57600086868381811061008157610081610dee565b905060a002018036038101906100979190610e67565b60208101516040516370a0823160e01b81523060048201529192506000916001600160a01b03909116906370a0823190602401602060405180830381865afa1580156100e7573d6000803e3d6000fd5b505050506040513d601f19601f8201168201806040525081019061010b9190610f07565b90506003826060015160ff16116101415761013c8260200151836040015183610137866060015161034f565b610427565b610261565b6005826060015160ff16116101755761013c826020015183604001518385608001516101708760600151610597565b610623565b6007826060015160ff16116101a95761013c826020015183604001518385608001516101a48760600151610787565b6107fb565b816060015160ff166008036101e55761013c8260200151836040015183856000015173be6d8f0d05cc4be24d5167a3ef062215be6d18a5610961565b816060015160ff166009036102215761013c8260000151836020015184604001518473cf77a3ba9a5ca399b7c97c74d54e5b1beb874e43610b73565b60405162461bcd60e51b815260206004820152601060248201526f125b9d985b1a59081c1c9bdd1bd8dbdb60821b60448201526064015b60405180910390fd5b60408083015190516370a0823160e01b81523060048201526001600160a01b03909116906370a0823190602401602060405180830381865afa1580156102ab573d6000803e3d6000fd5b505050506040513d601f19601f820116820180604052508101906102cf9190610f07565b93505050600101610065565b506040516370a0823160e01b81523060048201526000906006602160991b01906370a0823190602401602060405180830381865afa158015610321573d6000803e3d6000fd5b505050506040513d601f19601f820116820180604052508101906103459190610f07565b9695505050505050565b60008160ff166000036103775750734752ba5dbc23f44d87826276bf6fd6b1c372ad24919050565b8160ff1660010361039d5750736bded42c6da8fbf0d2ba55b2fa120c5e0c8d7891919050565b8160ff166002036103c35750738cfe327cec66d1c090dd72bd0ff11d690c33a2eb919050565b8160ff166003036103e9575073327df1e6de05895d2ab08513aadd9313fe505d86919050565b60405162461bcd60e51b8152602060048201526013602482015272125b9d985b1a5908158c881c1c9bdd1bd8dbdb606a1b6044820152606401610258565b60405163095ea7b360e01b81526001600160a01b0382811660048301526024820184905285169063095ea7b3906044016020604051808303816000875af1158015610476573d6000803e3d6000fd5b505050506040513d601f19601f8201168201806040525081019061049a9190610f20565b5060408051600280825260608201835260009260208301908036833701905050905084816000815181106104d0576104d0610dee565b60200260200101906001600160a01b031690816001600160a01b031681525050838160018151811061050457610504610dee565b6001600160a01b0392831660209182029290920101526040516338ed173960e01b8152908316906338ed173990610548908690600090869030904290600401610f49565b6000604051808303816000875af1158015610567573d6000803e3d6000fd5b505050506040513d6000823e601f3d908101601f1916820160405261058f9190810190610fbc565b505050505050565b60008160ff166004036105bf5750732626664c2603336e57b271c5c0b26f421741e481919050565b8160ff166005036105e5575073678aa4bf4e210cf2166753e054d5b7c31cc7fa86919050565b60405162461bcd60e51b8152602060048201526013602482015272125b9d985b1a5908158cc81c1c9bdd1bd8dbdb606a1b6044820152606401610258565b60405163095ea7b360e01b81526001600160a01b0382811660048301526024820185905286169063095ea7b3906044016020604051808303816000875af1158015610672573d6000803e3d6000fd5b505050506040513d601f19601f820116820180604052508101906106969190610f20565b506040805160e0810182526001600160a01b0387811682528681166020830190815262ffffff8681168486019081523060608601908152608086018a8152600060a0880181815260c0890191825298516304e45aaf60e01b815288518816600482015295518716602487015292519093166044850152518416606484015290516084830152935160a48201529251811660c48401529091908316906304e45aaf9060e4015b6020604051808303816000875af115801561075a573d6000803e3d6000fd5b505050506040513d601f19601f8201168201806040525081019061077e9190610f07565b50505050505050565b60008160ff166006036107af575073fb7ef66a7e61224dd6fcd0d7d9c3be5c8b049b9f919050565b8160ff166007036107d55750731b8eea9315be495187d873da7773a874545d9d48919050565b8160ff166008036105e5575073be6d8f0d05cc4be24d5167a3ef062215be6d18a5919050565b60405163095ea7b360e01b81526001600160a01b0382811660048301526024820185905286169063095ea7b3906044016020604051808303816000875af115801561084a573d6000803e3d6000fd5b505050506040513d601f19601f8201168201806040525081019061086e9190610f20565b506000604051806101000160405280876001600160a01b03168152602001866001600160a01b031681526020018462ffffff168152602001306001600160a01b031681526020014260646108c29190611062565b8152602080820187905260006040808401829052606093840191909152805163414bf38960e01b815284516001600160a01b03908116600483015292850151831660248201529084015162ffffff16604482015291830151811660648301526080830151608483015260a083015160a483015260c083015160c483015260e0830151811660e48301529192509083169063414bf389906101040161073b565b6000826001600160a01b031663d0c93a7c6040518163ffffffff1660e01b8152600401602060405180830381865afa1580156109a1573d6000803e3d6000fd5b505050506040513d601f19601f820116820180604052508101906109c59190611089565b60405163095ea7b360e01b81526001600160a01b038481166004830152602482018790529192509087169063095ea7b3906044016020604051808303816000875af1158015610a18573d6000803e3d6000fd5b505050506040513d601f19601f82011682018060405250810190610a3c9190610f20565b506000604051806101000160405280886001600160a01b03168152602001876001600160a01b031681526020018360020b8152602001306001600160a01b03168152602001426064610a8e9190611062565b815260208082018890526000604080840182905260609384019190915280516350131c1f60e11b815284516001600160a01b03908116600483015292850151831660248201529084015160020b604482015291830151811660648301526080830151608483015260a083015160a483015260c083015160c483015260e0830151811660e48301529192509084169063a026383e90610104016020604051808303816000875af1158015610b45573d6000803e3d6000fd5b505050506040513d601f19601f82011682018060405250810190610b699190610f07565b5050505050505050565b60405163095ea7b360e01b81526001600160a01b0382811660048301526024820184905285169063095ea7b3906044016020604051808303816000875af1158015610bc2573d6000803e3d6000fd5b505050506040513d601f19601f82011682018060405250810190610be69190610f20565b50604080516001808252818301909252600091816020015b604080516080810182526000808252602080830182905292820181905260608201528252600019909201910181610bfe5790505090506000866001600160a01b03166322be3de16040518163ffffffff1660e01b8152600401602060405180830381865afa158015610c74573d6000803e3d6000fd5b505050506040513d601f19601f82011682018060405250810190610c989190610f20565b90506040518060800160405280876001600160a01b03168152602001866001600160a01b03168152602001821515815260200160006001600160a01b031681525082600081518110610cec57610cec610dee565b602090810291909101015260405163cac88ea960e01b81526001600160a01b0384169063cac88ea990610d2c9087906000908790309042906004016110ac565b6000604051808303816000875af1158015610d4b573d6000803e3d6000fd5b505050506040513d6000823e601f3d908101601f19168201604052610b699190810190610fbc565b600080600060408486031215610d8857600080fd5b833567ffffffffffffffff80821115610da057600080fd5b818601915086601f830112610db457600080fd5b813581811115610dc357600080fd5b87602060a083028501011115610dd857600080fd5b6020928301989097509590910135949350505050565b634e487b7160e01b600052603260045260246000fd5b634e487b7160e01b600052604160045260246000fd5b604051601f8201601f1916810167ffffffffffffffff81118282101715610e4357610e43610e04565b604052919050565b80356001600160a01b0381168114610e6257600080fd5b919050565b600060a08284031215610e7957600080fd5b60405160a0810181811067ffffffffffffffff82111715610e9c57610e9c610e04565b604052610ea883610e4b565b8152610eb660208401610e4b565b6020820152610ec760408401610e4b565b6040820152606083013560ff81168114610ee057600080fd5b6060820152608083013562ffffff81168114610efb57600080fd5b60808201529392505050565b600060208284031215610f1957600080fd5b5051919050565b600060208284031215610f3257600080fd5b81518015158114610f4257600080fd5b9392505050565b600060a08201878352602087602085015260a0604085015281875180845260c08601915060208901935060005b81811015610f9b5784516001600160a01b031683529383019391830191600101610f76565b50506001600160a01b03969096166060850152505050608001529392505050565b60006020808385031215610fcf57600080fd5b825167ffffffffffffffff80821115610fe757600080fd5b818501915085601f830112610ffb57600080fd5b81518181111561100d5761100d610e04565b8060051b915061101e848301610e1a565b818152918301840191848101908884111561103857600080fd5b938501935b838510156110565784518252938501939085019061103d565b98975050505050505050565b8082018082111561108357634e487b7160e01b600052601160045260246000fd5b92915050565b60006020828403121561109b57600080fd5b81518060020b8114610f4257600080fd5b600060a082018783526020876020850152604060a0604086015282885180855260c08701915060208a01945060005b8181101561112557855180516001600160a01b03908116855286820151811687860152858201511515868601526060918201511690840152948401946080909201916001016110db565b50506001600160a01b0388166060870152935061114192505050565b826080830152969550505050505056fea26469706673582212201134dbabc601f6cf04cb9facd21981d7567c6cb00a95fe4266b8a78f7ffa07dc64736f6c63430008190033","linkReferences":{}},"methodIdentifiers":{"executeArbitrage((address,address,address,uint8,uint24)[],uint256)":"e0d824df"},"id":28}