{"abi":[{"type":"receive","stateMutability":"payable"},{"type":"function","name":"executeArbitrage","inputs":[{"name":"steps","type":"tuple[]","internalType":"struct FlashQuoter.SwapStep[]","components":[{"name":"poolAddress","type":"address","internalType":"address"},{"name":"tokenIn","type":"address","internalType":"address"},{"name":"tokenOut","type":"address","internalType":"address"},{"name":"protocol","type":"uint8","internalType":"uint8"},{"name":"fee","type":"uint24","internalType":"uint24"},{"name":"stable","type":"bool","internalType":"bool"}]},{"name":"amount","type":"uint256","internalType":"uint256"}],"outputs":[{"name":"","type":"uint256","internalType":"uint256"}],"stateMutability":"nonpayable"},{"type":"event","name":"Profit","inputs":[{"name":"value","type":"uint256","indexed":false,"internalType":"uint256"}],"anonymous":false}],"bytecode":{"object":"0x6080604052348015600f57600080fd5b50610f188061001f6000396000f3fe6080604052600436106100225760003560e01c80631c176f451461002e57600080fd5b3661002957005b600080fd5b34801561003a57600080fd5b5061004e610049366004610a66565b610060565b60405190815260200160405180910390f35b600081815b8481101561029f57600086868381811061008157610081610ae2565b905060c002018036038101906100979190610ba0565b60208101516040516370a0823160e01b81523060048201529192506000916001600160a01b03909116906370a0823190602401602060405180830381865afa1580156100e7573d6000803e3d6000fd5b505050506040513d601f19601f8201168201806040525081019061010b9190610c36565b90506003826060015160ff16116101415761013c82602001518360400151836101378660600151610313565b6103eb565b610225565b6005826060015160ff16116101755761013c82602001518360400151838560800151610170876060015161055b565b6105e7565b6008826060015160ff16116101a95761013c826020015183604001518385608001516101a4876060015161074b565b6107bf565b816060015160ff166009036101e55761013c82602001518360400151838560a0015173cf77a3ba9a5ca399b7c97c74d54e5b1beb874e436108cc565b60405162461bcd60e51b815260206004820152601060248201526f125b9d985b1a59081c1c9bdd1bd8dbdb60821b60448201526064015b60405180910390fd5b60408083015190516370a0823160e01b81523060048201526001600160a01b03909116906370a0823190602401602060405180830381865afa15801561026f573d6000803e3d6000fd5b505050506040513d601f19601f820116820180604052508101906102939190610c36565b93505050600101610065565b506040516370a0823160e01b81523060048201526000906006602160991b01906370a0823190602401602060405180830381865afa1580156102e5573d6000803e3d6000fd5b505050506040513d601f19601f820116820180604052508101906103099190610c36565b9695505050505050565b60008160ff1660000361033b5750734752ba5dbc23f44d87826276bf6fd6b1c372ad24919050565b8160ff166001036103615750736bded42c6da8fbf0d2ba55b2fa120c5e0c8d7891919050565b8160ff166002036103875750738cfe327cec66d1c090dd72bd0ff11d690c33a2eb919050565b8160ff166003036103ad575073327df1e6de05895d2ab08513aadd9313fe505d86919050565b60405162461bcd60e51b8152602060048201526013602482015272125b9d985b1a5908158c881c1c9bdd1bd8dbdb606a1b604482015260640161021c565b60405163095ea7b360e01b81526001600160a01b0382811660048301526024820184905285169063095ea7b3906044016020604051808303816000875af115801561043a573d6000803e3d6000fd5b505050506040513d601f19601f8201168201806040525081019061045e9190610c4f565b50604080516002808252606082018352600092602083019080368337019050509050848160008151811061049457610494610ae2565b60200260200101906001600160a01b031690816001600160a01b03168152505083816001815181106104c8576104c8610ae2565b6001600160a01b0392831660209182029290920101526040516338ed173960e01b8152908316906338ed17399061050c908690600090869030904290600401610c73565b6000604051808303816000875af115801561052b573d6000803e3d6000fd5b505050506040513d6000823e601f3d908101601f191682016040526105539190810190610ce5565b505050505050565b60008160ff166004036105835750732626664c2603336e57b271c5c0b26f421741e481919050565b8160ff166005036105a9575073678aa4bf4e210cf2166753e054d5b7c31cc7fa86919050565b60405162461bcd60e51b8152602060048201526013602482015272125b9d985b1a5908158cc81c1c9bdd1bd8dbdb606a1b604482015260640161021c565b60405163095ea7b360e01b81526001600160a01b0382811660048301526024820185905286169063095ea7b3906044016020604051808303816000875af1158015610636573d6000803e3d6000fd5b505050506040513d601f19601f8201168201806040525081019061065a9190610c4f565b506040805160e0810182526001600160a01b0387811682528681166020830190815262ffffff8681168486019081523060608601908152608086018a8152600060a0880181815260c0890191825298516304e45aaf60e01b815288518816600482015295518716602487015292519093166044850152518416606484015290516084830152935160a48201529251811660c48401529091908316906304e45aaf9060e4015b6020604051808303816000875af115801561071e573d6000803e3d6000fd5b505050506040513d601f19601f820116820180604052508101906107429190610c36565b50505050505050565b60008160ff16600603610773575073fb7ef66a7e61224dd6fcd0d7d9c3be5c8b049b9f919050565b8160ff166007036107995750731b8eea9315be495187d873da7773a874545d9d48919050565b8160ff166008036105a9575073be6d8f0d05cc4be24d5167a3ef062215be6d18a5919050565b60405163095ea7b360e01b81526001600160a01b0382811660048301526024820185905286169063095ea7b3906044016020604051808303816000875af115801561080e573d6000803e3d6000fd5b505050506040513d601f19601f820116820180604052508101906108329190610c4f565b506000604051806101000160405280876001600160a01b03168152602001866001600160a01b031681526020018462ffffff168152602001306001600160a01b031681526020014260646108869190610d96565b815260208101869052600060408083018290526060909201525163414bf38960e01b81529091506001600160a01b0383169063414bf389906106ff908490600401610dbd565b60405163095ea7b360e01b81526001600160a01b0382811660048301526024820185905286169063095ea7b3906044016020604051808303816000875af115801561091b573d6000803e3d6000fd5b505050506040513d601f19601f8201168201806040525081019061093f9190610c4f565b50604080516001808252818301909252600091816020015b6040805160808101825260008082526020808301829052928201819052606082015282526000199092019101816109575790505090506040518060800160405280876001600160a01b03168152602001866001600160a01b03168152602001841515815260200160006001600160a01b0316815250816000815181106109df576109df610ae2565b602090810291909101015260405163cac88ea960e01b81526001600160a01b0383169063cac88ea990610a1f908790600090869030904290600401610e3a565b6000604051808303816000875af1158015610a3e573d6000803e3d6000fd5b505050506040513d6000823e601f3d908101601f191682016040526107429190810190610ce5565b600080600060408486031215610a7b57600080fd5b833567ffffffffffffffff811115610a9257600080fd5b8401601f81018613610aa357600080fd5b803567ffffffffffffffff811115610aba57600080fd5b86602060c083028401011115610acf57600080fd5b6020918201979096509401359392505050565b634e487b7160e01b600052603260045260246000fd5b634e487b7160e01b600052604160045260246000fd5b60405160c0810167ffffffffffffffff81118282101715610b3157610b31610af8565b60405290565b604051601f8201601f1916810167ffffffffffffffff81118282101715610b6057610b60610af8565b604052919050565b80356001600160a01b0381168114610b7f57600080fd5b919050565b8015158114610b9257600080fd5b50565b8035610b7f81610b84565b600060c0828403128015610bb357600080fd5b506000610bbe610b0e565b610bc784610b68565b8152610bd560208501610b68565b6020820152610be660408501610b68565b6040820152606084013560ff81168114610bfe578283fd5b6060820152608084013562ffffff81168114610c18578283fd5b6080820152610c2960a08501610b95565b60a0820152949350505050565b600060208284031215610c4857600080fd5b5051919050565b600060208284031215610c6157600080fd5b8151610c6c81610b84565b9392505050565b600060a0820187835286602084015260a0604084015280865180835260c08501915060208801925060005b81811015610cc55783516001600160a01b0316835260209384019390920191600101610c9e565b50506001600160a01b039590951660608401525050608001529392505050565b600060208284031215610cf757600080fd5b815167ffffffffffffffff811115610d0e57600080fd5b8201601f81018413610d1f57600080fd5b805167ffffffffffffffff811115610d3957610d39610af8565b8060051b610d4960208201610b37565b91825260208184018101929081019087841115610d6557600080fd5b6020850194505b83851015610d8b57845180835260209586019590935090910190610d6c565b979650505050505050565b80820180821115610db757634e487b7160e01b600052601160045260246000fd5b92915050565b81516001600160a01b03908116825260208084015182169083015260408084015162ffffff169083015260608084015191821690830152610100820190506080830151608083015260a083015160a083015260c083015160c083015260e0830151610e3360e08401826001600160a01b03169052565b5092915050565b600060a0820187835286602084015260a0604084015280865180835260c08501915060208801925060005b81811015610eb857835180516001600160a01b0390811685526020808301518216818701526040808401511515908701526060928301519091169185019190915290930192608090920191600101610e65565b50506001600160a01b03861660608501529150610ed29050565b826080830152969550505050505056fea26469706673582212206461b760f117d89d3ca893661ccd64a2a534b9850ec5f471175229c653ec03b064736f6c634300081a0033","linkReferences":{}},"methodIdentifiers":{"executeArbitrage((address,address,address,uint8,uint24,bool)[],uint256)":"1c176f45"},"id":28}