{"abi":[{"type":"constructor","inputs":[],"stateMutability":"nonpayable"},{"type":"function","name":"ADDRESSES_PROVIDER","inputs":[],"outputs":[{"name":"","type":"address","internalType":"contract IPoolAddressesProvider"}],"stateMutability":"view"},{"type":"function","name":"POOL","inputs":[],"outputs":[{"name":"","type":"address","internalType":"contract IPool"}],"stateMutability":"view"},{"type":"function","name":"executeArbitrage","inputs":[{"name":"steps","type":"tuple[]","internalType":"struct FlashSwap.SwapStep[]","components":[{"name":"poolAddress","type":"address","internalType":"address"},{"name":"tokenIn","type":"address","internalType":"address"},{"name":"tokenOut","type":"address","internalType":"address"},{"name":"protocol","type":"uint8","internalType":"uint8"},{"name":"fee","type":"uint24","internalType":"uint24"},{"name":"stable","type":"bool","internalType":"bool"}]},{"name":"amount","type":"uint256","internalType":"uint256"}],"outputs":[],"stateMutability":"nonpayable"},{"type":"function","name":"executeOperation","inputs":[{"name":"asset","type":"address","internalType":"address"},{"name":"amount","type":"uint256","internalType":"uint256"},{"name":"premium","type":"uint256","internalType":"uint256"},{"name":"initiator","type":"address","internalType":"address"},{"name":"params","type":"bytes","internalType":"bytes"}],"outputs":[{"name":"","type":"bool","internalType":"bool"}],"stateMutability":"nonpayable"},{"type":"function","name":"owner","inputs":[],"outputs":[{"name":"","type":"address","internalType":"address"}],"stateMutability":"view"},{"type":"function","name":"withdraw","inputs":[{"name":"token","type":"address","internalType":"address"}],"outputs":[],"stateMutability":"nonpayable"},{"type":"event","name":"Profit","inputs":[{"name":"value","type":"uint256","indexed":false,"internalType":"uint256"}],"anonymous":false}],"bytecode":{"object":"0x60e060405234801561001057600080fd5b5073e20fcbdbffc4dd138ce8b2e6fbb6cb49777ad64d60808190526040805163026b1d5f60e01b81529051829163026b1d5f9160048083019260209291908290030181865afa158015610067573d6000803e3d6000fd5b505050506040513d601f19601f8201168201806040525081019061008b91906100a1565b6001600160a01b031660a052503360c0526100d1565b6000602082840312156100b357600080fd5b81516001600160a01b03811681146100ca57600080fd5b9392505050565b60805160a05160c0516117ad610121600039600081816101220152818161073a015261082901526000818160fb015281816101510152818161049801526106b801526000606c01526117ad6000f3fe608060405234801561001057600080fd5b50600436106100625760003560e01c80630542975c146100675780631b11d0ff146100ab5780631c176f45146100ce57806351cff8d9146100e35780637535d246146100f65780638da5cb5b1461011d575b600080fd5b61008e7f000000000000000000000000000000000000000000000000000000000000000081565b6040516001600160a01b0390911681526020015b60405180910390f35b6100be6100b9366004611019565b610144565b60405190151581526020016100a2565b6100e16100dc3660046110c6565b61064b565b005b6100e16100f1366004611142565b61072f565b61008e7f000000000000000000000000000000000000000000000000000000000000000081565b61008e7f000000000000000000000000000000000000000000000000000000000000000081565b6000336001600160a01b037f000000000000000000000000000000000000000000000000000000000000000016146101c35760405162461bcd60e51b815260206004820152601860248201527f43616c6c6572206d757374206265204161766520506f6f6c000000000000000060448201526064015b60405180910390fd5b6000806101d284860186611247565b90925090508760005b83518110156104065760008482815181106101f8576101f8611375565b602090810291909101810151908101516040516370a0823160e01b81523060048201529192506000916001600160a01b03909116906370a0823190602401602060405180830381865afa158015610253573d6000803e3d6000fd5b505050506040513d601f19601f82011682018060405250810190610277919061138b565b90506003826060015160ff16116102ad576102a882602001518360400151836102a386606001516108ae565b610986565b61038c565b6005826060015160ff16116102e1576102a8826020015183604001518385608001516102dc8760600151610af6565b610b82565b6008826060015160ff1611610315576102a8826020015183604001518385608001516103108760600151610ce6565b610d5a565b816060015160ff16600903610351576102a882602001518360400151838560a0015173cf77a3ba9a5ca399b7c97c74d54e5b1beb874e43610e67565b60405162461bcd60e51b815260206004820152601060248201526f125b9d985b1a59081c1c9bdd1bd8dbdb60821b60448201526064016101ba565b60408083015190516370a0823160e01b81523060048201526001600160a01b03909116906370a0823190602401602060405180830381865afa1580156103d6573d6000803e3d6000fd5b505050506040513d601f19601f820116820180604052508101906103fa919061138b565b935050506001016101db565b506000610413898b6113ba565b6040516370a0823160e01b81523060048201529091506000906001600160a01b038d16906370a0823190602401602060405180830381865afa15801561045d573d6000803e3d6000fd5b505050506040513d601f19601f82011682018060405250810190610481919061138b565b60405163095ea7b360e01b81526001600160a01b037f00000000000000000000000000000000000000000000000000000000000000008116600483015260248201839052919250908d169063095ea7b3906044016020604051808303816000875af11580156104f4573d6000803e3d6000fd5b505050506040513d601f19601f8201168201806040525081019061051891906113d3565b508181101561057a5760405162461bcd60e51b815260206004820152602860248201527f496e73756666696369656e742062616c616e636520746f20726570617920666c60448201526730b9b4103637b0b760c11b60648201526084016101ba565b600061058683836113f0565b905080156106365760405163a9059cbb60e01b81526001600160a01b038681166004830152602482018390528e169063a9059cbb906044016020604051808303816000875af11580156105dd573d6000803e3d6000fd5b505050506040513d601f19601f8201168201806040525081019061060191906113d3565b506040518181527f357d905f1831209797df4d55d79c5c5bf1d9f7311c976afd05e13d881eab9bc89060200160405180910390a15b600196505050505050505b9695505050505050565b60008383600081811061066057610660611375565b905060c0020160200160208101906106789190611142565b9050600084843360405160200161069193929190611403565b60408051601f19818403018152908290526310ac2ddf60e21b825291506001600160a01b037f000000000000000000000000000000000000000000000000000000000000000016906342b0b77c906106f69030908690889087906000906004016114dc565b600060405180830381600087803b15801561071057600080fd5b505af1158015610724573d6000803e3d6000fd5b505050505050505050565b336001600160a01b037f000000000000000000000000000000000000000000000000000000000000000016146107a75760405162461bcd60e51b815260206004820152601760248201527f4f6e6c79206f776e65722063616e20776974686472617700000000000000000060448201526064016101ba565b6040516370a0823160e01b81523060048201526000906001600160a01b038316906370a0823190602401602060405180830381865afa1580156107ee573d6000803e3d6000fd5b505050506040513d601f19601f82011682018060405250810190610812919061138b565b60405163a9059cbb60e01b81526001600160a01b037f000000000000000000000000000000000000000000000000000000000000000081166004830152602482018390529192509083169063a9059cbb906044016020604051808303816000875af1158015610885573d6000803e3d6000fd5b505050506040513d601f19601f820116820180604052508101906108a991906113d3565b505050565b60008160ff166000036108d65750734752ba5dbc23f44d87826276bf6fd6b1c372ad24919050565b8160ff166001036108fc5750736bded42c6da8fbf0d2ba55b2fa120c5e0c8d7891919050565b8160ff166002036109225750738cfe327cec66d1c090dd72bd0ff11d690c33a2eb919050565b8160ff16600303610948575073327df1e6de05895d2ab08513aadd9313fe505d86919050565b60405162461bcd60e51b8152602060048201526013602482015272125b9d985b1a5908158c881c1c9bdd1bd8dbdb606a1b60448201526064016101ba565b60405163095ea7b360e01b81526001600160a01b0382811660048301526024820184905285169063095ea7b3906044016020604051808303816000875af11580156109d5573d6000803e3d6000fd5b505050506040513d601f19601f820116820180604052508101906109f991906113d3565b506040805160028082526060820183526000926020830190803683370190505090508481600081518110610a2f57610a2f611375565b60200260200101906001600160a01b031690816001600160a01b0316815250508381600181518110610a6357610a63611375565b6001600160a01b0392831660209182029290920101526040516338ed173960e01b8152908316906338ed173990610aa7908690600090869030904290600401611554565b6000604051808303816000875af1158015610ac6573d6000803e3d6000fd5b505050506040513d6000823e601f3d908101601f19168201604052610aee91908101906115c6565b505050505050565b60008160ff16600403610b1e5750732626664c2603336e57b271c5c0b26f421741e481919050565b8160ff16600503610b44575073678aa4bf4e210cf2166753e054d5b7c31cc7fa86919050565b60405162461bcd60e51b8152602060048201526013602482015272125b9d985b1a5908158cc81c1c9bdd1bd8dbdb606a1b60448201526064016101ba565b60405163095ea7b360e01b81526001600160a01b0382811660048301526024820185905286169063095ea7b3906044016020604051808303816000875af1158015610bd1573d6000803e3d6000fd5b505050506040513d601f19601f82011682018060405250810190610bf591906113d3565b506040805160e0810182526001600160a01b0387811682528681166020830190815262ffffff8681168486019081523060608601908152608086018a8152600060a0880181815260c0890191825298516304e45aaf60e01b815288518816600482015295518716602487015292519093166044850152518416606484015290516084830152935160a48201529251811660c48401529091908316906304e45aaf9060e4015b6020604051808303816000875af1158015610cb9573d6000803e3d6000fd5b505050506040513d601f19601f82011682018060405250810190610cdd919061138b565b50505050505050565b60008160ff16600603610d0e575073fb7ef66a7e61224dd6fcd0d7d9c3be5c8b049b9f919050565b8160ff16600703610d345750731b8eea9315be495187d873da7773a874545d9d48919050565b8160ff16600803610b44575073be6d8f0d05cc4be24d5167a3ef062215be6d18a5919050565b60405163095ea7b360e01b81526001600160a01b0382811660048301526024820185905286169063095ea7b3906044016020604051808303816000875af1158015610da9573d6000803e3d6000fd5b505050506040513d601f19601f82011682018060405250810190610dcd91906113d3565b506000604051806101000160405280876001600160a01b03168152602001866001600160a01b031681526020018462ffffff168152602001306001600160a01b03168152602001426064610e2191906113ba565b815260208101869052600060408083018290526060909201525163414bf38960e01b81529091506001600160a01b0383169063414bf38990610c9a908490600401611652565b60405163095ea7b360e01b81526001600160a01b0382811660048301526024820185905286169063095ea7b3906044016020604051808303816000875af1158015610eb6573d6000803e3d6000fd5b505050506040513d601f19601f82011682018060405250810190610eda91906113d3565b50604080516001808252818301909252600091816020015b604080516080810182526000808252602080830182905292820181905260608201528252600019909201910181610ef25790505090506040518060800160405280876001600160a01b03168152602001866001600160a01b03168152602001841515815260200160006001600160a01b031681525081600081518110610f7a57610f7a611375565b602090810291909101015260405163cac88ea960e01b81526001600160a01b0383169063cac88ea990610fba9087906000908690309042906004016116cf565b6000604051808303816000875af1158015610fd9573d6000803e3d6000fd5b505050506040513d6000823e601f3d908101601f19168201604052610cdd91908101906115c6565b6001600160a01b038116811461101657600080fd5b50565b60008060008060008060a0878903121561103257600080fd5b863561103d81611001565b95506020870135945060408701359350606087013561105b81611001565b9250608087013567ffffffffffffffff81111561107757600080fd5b8701601f8101891361108857600080fd5b803567ffffffffffffffff81111561109f57600080fd5b8960208284010111156110b157600080fd5b60208201935080925050509295509295509295565b6000806000604084860312156110db57600080fd5b833567ffffffffffffffff8111156110f257600080fd5b8401601f8101861361110357600080fd5b803567ffffffffffffffff81111561111a57600080fd5b86602060c08302840101111561112f57600080fd5b6020918201979096509401359392505050565b60006020828403121561115457600080fd5b813561115f81611001565b9392505050565b634e487b7160e01b600052604160045260246000fd5b60405160c0810167ffffffffffffffff8111828210171561119f5761119f611166565b60405290565b604051601f8201601f1916810167ffffffffffffffff811182821017156111ce576111ce611166565b604052919050565b600067ffffffffffffffff8211156111f0576111f0611166565b5060051b60200190565b803560ff8116811461120b57600080fd5b919050565b803562ffffff8116811461120b57600080fd5b801515811461101657600080fd5b803561120b81611223565b803561120b81611001565b6000806040838503121561125a57600080fd5b823567ffffffffffffffff81111561127157600080fd5b8301601f8101851361128257600080fd5b8035611295611290826111d6565b6111a5565b80828252602082019150602060c084028501019250878311156112b757600080fd5b6020840193505b8284101561135a5760c084890312156112d657600080fd5b6112de61117c565b84356112e981611001565b815260208501356112f981611001565b6020820152604085013561130c81611001565b604082015261131d606086016111fa565b606082015261132e60808601611210565b608082015260a085013561134181611223565b60a0820152825260c093909301926020909101906112be565b945061136c925050506020840161123c565b90509250929050565b634e487b7160e01b600052603260045260246000fd5b60006020828403121561139d57600080fd5b5051919050565b634e487b7160e01b600052601160045260246000fd5b808201808211156113cd576113cd6113a4565b92915050565b6000602082840312156113e557600080fd5b815161115f81611223565b818103818111156113cd576113cd6113a4565b6040808252810183905260008460608301825b868110156114bb57823561142981611001565b6001600160a01b03168252602083013561144281611001565b6001600160a01b03166020830152604083013561145e81611001565b6001600160a01b0316604083015260ff61147a606085016111fa565b16606083015262ffffff61149060808501611210565b1660808301526114a260a08401611231565b151560a083015260c09283019290910190600101611416565b506001600160a01b038516602085015291506114d49050565b949350505050565b6001600160a01b038681168252851660208201526040810184905260a0606082018190528351908201819052600090815b8181101561152a57602081870181015160c086840101520161150d565b50600060c0828501015260c0601f19601f830116840101915050610641608083018461ffff169052565b600060a0820187835286602084015260a0604084015280865180835260c08501915060208801925060005b818110156115a65783516001600160a01b031683526020938401939092019160010161157f565b50506001600160a01b039590951660608401525050608001529392505050565b6000602082840312156115d857600080fd5b815167ffffffffffffffff8111156115ef57600080fd5b8201601f8101841361160057600080fd5b805161160e611290826111d6565b8082825260208201915060208360051b85010192508683111561163057600080fd5b6020840193505b82841015610641578351825260209384019390910190611637565b81516001600160a01b03908116825260208084015182169083015260408084015162ffffff169083015260608084015191821690830152610100820190506080830151608083015260a083015160a083015260c083015160c083015260e08301516116c860e08401826001600160a01b03169052565b5092915050565b600060a0820187835286602084015260a0604084015280865180835260c08501915060208801925060005b8181101561174d57835180516001600160a01b03908116855260208083015182168187015260408084015115159087015260609283015190911691850191909152909301926080909201916001016116fa565b50506001600160a01b038616606085015291506117679050565b826080830152969550505050505056fea26469706673582212206d00734f6e931d5f4c8236f961ced8f4f03e210f8ccb3ad8ec3f4f09a36d969464736f6c634300081a0033","linkReferences":{}},"methodIdentifiers":{"ADDRESSES_PROVIDER()":"0542975c","POOL()":"7535d246","executeArbitrage((address,address,address,uint8,uint24,bool)[],uint256)":"1c176f45","executeOperation(address,uint256,uint256,address,bytes)":"1b11d0ff","owner()":"8da5cb5b","withdraw(address)":"51cff8d9"},"id":28}