{"abi":[{"type":"receive","stateMutability":"payable"},{"type":"function","name":"WETH","inputs":[],"outputs":[{"name":"","type":"address","internalType":"contract IWETH"}],"stateMutability":"view"},{"type":"function","name":"quoteArbitrage","inputs":[{"name":"steps","type":"tuple[]","internalType":"struct FlashQuoter.SwapStep[]","components":[{"name":"poolAddress","type":"address","internalType":"address"},{"name":"tokenIn","type":"address","internalType":"address"},{"name":"tokenOut","type":"address","internalType":"address"},{"name":"protocol","type":"uint8","internalType":"uint8"},{"name":"fee","type":"uint24","internalType":"uint24"}]},{"name":"amount","type":"uint256","internalType":"uint256"}],"outputs":[{"name":"","type":"uint256","internalType":"uint256"}],"stateMutability":"nonpayable"},{"type":"function","name":"rescueTokens","inputs":[{"name":"token","type":"address","internalType":"address"}],"outputs":[],"stateMutability":"nonpayable"}],"bytecode":{"object":"0x6080604052348015600f57600080fd5b506117438061001f6000396000f3fe6080604052600436106100375760003560e01c8062ae3bf814610043578063ad5c464814610065578063b14743da1461009d57600080fd5b3661003e57005b600080fd5b34801561004f57600080fd5b5061006361005e366004611101565b6100cb565b005b34801561007157600080fd5b506100806006602160991b0181565b6040516001600160a01b0390911681526020015b60405180910390f35b3480156100a957600080fd5b506100bd6100b8366004611125565b6101f9565b604051908152602001610094565b6040516370a0823160e01b81523060048201526000906001600160a01b038316906370a0823190602401602060405180830381865afa158015610112573d6000803e3d6000fd5b505050506040513d601f19601f8201168201806040525081019061013691906111a1565b9050600081116101835760405162461bcd60e51b81526020600482015260136024820152724e6f20746f6b656e7320746f2072657363756560681b60448201526064015b60405180910390fd5b60405163a9059cbb60e01b8152336004820152602481018290526001600160a01b0383169063a9059cbb906044016020604051808303816000875af11580156101d0573d6000803e3d6000fd5b505050506040513d601f19601f820116820180604052508101906101f491906111ba565b505050565b6000826102375760405162461bcd60e51b815260206004820152600c60248201526b092dcecc2d8d2c840e0c2e8d60a31b604482015260640161017a565b600082116102785760405162461bcd60e51b815260206004820152600e60248201526d125b9d985b1a5908185b5bdd5b9d60921b604482015260640161017a565b6040516323b872dd60e01b8152336004820152306024820152604481018390526006602160991b01906323b872dd906064016020604051808303816000875af11580156102c9573d6000803e3d6000fd5b505050506040513d601f19601f820116820180604052508101906102ed91906111ba565b6103305760405162461bcd60e51b815260206004820152601460248201527315d15512081d1c985b9cd9995c8819985a5b195960621b604482015260640161017a565b8160005b848110156104ec576000868683818110610350576103506111dc565b905060a0020160200160208101906103689190611101565b6040516370a0823160e01b81523060048201526001600160a01b0391909116906370a0823190602401602060405180830381865afa1580156103ae573d6000803e3d6000fd5b505050506040513d601f19601f820116820180604052508101906103d291906111a1565b90508686838181106103e6576103e66111dc565b905060a0020160200160208101906103fe9190611101565b6001600160a01b031663095ea7b361043e898986818110610421576104216111dc565b905060a0020160600160208101906104399190611208565b6104f5565b6040516001600160e01b031960e084901b1681526001600160a01b039091166004820152602481018490526044016020604051808303816000875af115801561048b573d6000803e3d6000fd5b505050506040513d601f19601f820116820180604052508101906104af91906111ba565b506104e18787848181106104c5576104c56111dc565b905060a002018036038101906104db919061126a565b826107b8565b925050600101610334565b50949350505050565b60008160ff1660000361051d5750734752ba5dbc23f44d87826276bf6fd6b1c372ad24919050565b8160ff166001036105435750736bded42c6da8fbf0d2ba55b2fa120c5e0c8d7891919050565b8160ff166002036105695750738cfe327cec66d1c090dd72bd0ff11d690c33a2eb919050565b8160ff1660030361058f575073327df1e6de05895d2ab08513aadd9313fe505d86919050565b8160ff166004036105b5575073aaa3b1f1bd7bcc97fd1917c18ade665c5d31f066919050565b8160ff166005036105db5750738c1a3cf8f83074169fe5d7ad50b978e1cd6b37c7919050565b8160ff16600603610601575073ca4eaa32e7081b0c4ba47e2bdf9b7163907fe56f919050565b8160ff166007036106275750732626664c2603336e57b271c5c0b26f421741e481919050565b8160ff1660080361064d575073b20c411fc84fbb27e78608c24d0056d974ea9411919050565b8160ff16600903610673575073195fbc5b8fbd5ac739c1ba57d4ef6d5a704f34f7919050565b8160ff16600a03610699575073678aa4bf4e210cf2166753e054d5b7c31cc7fa86919050565b8160ff16600b036106bf575073fb7ef66a7e61224dd6fcd0d7d9c3be5c8b049b9f919050565b8160ff16600c036106e5575073756c6bbdd915202adac7bebb1c6c89ac0886503f919050565b8160ff16600d0361070b5750731b8eea9315be495187d873da7773a874545d9d48919050565b8160ff16600e03610731575073be6d8f0d05cc4be24d5167a3ef062215be6d18a5919050565b8160ff16600f03610757575073cf77a3ba9a5ca399b7c97c74d54e5b1beb874e43919050565b8160ff1660100361077d575073ba12222222228d8ba445958a75a0704d566bf2c8919050565b60405162461bcd60e51b815260206004820152601060248201526f125b9d985b1a59081c1c9bdd1bd8dbdb60821b604482015260640161017a565b60006006836060015160ff16116107da576107d38383610883565b905061087d565b600d836060015160ff16116107f3576107d38383610a10565b826060015160ff16600e0361080c576107d38383610bc6565b826060015160ff16600f03610825576107d38383610d1e565b826060015160ff1660100361083e576107d38383610fa0565b60405162461bcd60e51b8152602060048201526014602482015273155b9cdd5c1c1bdc9d1959081c1c9bdd1bd8dbdb60621b604482015260640161017a565b92915050565b604080516002808252606082018352600092839291906020830190803683370190505090508360200151816000815181106108c0576108c06111dc565b60200260200101906001600160a01b031690816001600160a01b0316815250508360400151816001815181106108f8576108f86111dc565b60200260200101906001600160a01b031690816001600160a01b031681525050600061092785606001516104f5565b6001600160a01b03166338ed17398560008530426040518663ffffffff1660e01b815260040161095b95949392919061130a565b6000604051808303816000875af115801561097a573d6000803e3d6000fd5b505050506040513d6000823e601f3d908101601f191682016040526109a2919081019061137c565b905060018151116109eb5760405162461bcd60e51b8152602060048201526013602482015272125b9d985b1a59081cddd85c081c995cdd5b1d606a1b604482015260640161017a565b806001815181106109fe576109fe6111dc565b60200260200101519250505092915050565b6000600a836060015160ff1611610b1e57610a2e83606001516104f5565b6040805160e0810182526020808701516001600160a01b03908116835287840151811691830191825260808089015162ffffff90811685870190815230606087019081529286018a8152600060a0880181815260c0890191825298516304e45aaf60e01b815297518616600489015295518516602488015290519091166044860152905182166064850152516084840152925160a483015251821660c48201529116906304e45aaf9060e4015b6020604051808303816000875af1158015610afa573d6000803e3d6000fd5b505050506040513d601f19601f820116820180604052508101906107d391906111a1565b610b2b83606001516104f5565b6001600160a01b031663414bf38960405180610100016040528086602001516001600160a01b0316815260200186604001516001600160a01b03168152602001866080015162ffffff168152602001306001600160a01b031681526020014281526020018581526020016000815260200160006001600160a01b03168152506040518263ffffffff1660e01b8152600401610adb919061142d565b60008083600001516001600160a01b031663d0c93a7c6040518163ffffffff1660e01b8152600401602060405180830381865afa158015610c0b573d6000803e3d6000fd5b505050506040513d601f19601f82011682018060405250810190610c2f91906114ab565b9050610c3e84606001516104f5565b6001600160a01b031663a026383e60405180610100016040528087602001516001600160a01b0316815260200187604001516001600160a01b031681526020018460020b8152602001306001600160a01b031681526020014281526020018681526020016000815260200160006001600160a01b03168152506040518263ffffffff1660e01b8152600401610cd391906114ce565b6020604051808303816000875af1158015610cf2573d6000803e3d6000fd5b505050506040513d601f19601f82011682018060405250810190610d1691906111a1565b949350505050565b604080516001808252818301909252600091829190816020015b604080516080810182526000808252602080830182905292820181905260608201528252600019909201910181610d38579050509050600084600001516001600160a01b03166322be3de16040518163ffffffff1660e01b8152600401602060405180830381865afa158015610db2573d6000803e3d6000fd5b505050506040513d601f19601f82011682018060405250810190610dd691906111ba565b9050600085600001516001600160a01b031663c45a01556040518163ffffffff1660e01b8152600401602060405180830381865afa158015610e1c573d6000803e3d6000fd5b505050506040513d601f19601f82011682018060405250810190610e40919061150e565b9050604051806080016040528087602001516001600160a01b0316815260200187604001516001600160a01b031681526020018315158152602001826001600160a01b031681525083600081518110610e9b57610e9b6111dc565b60200260200101819052506000610eb587606001516104f5565b6001600160a01b031663cac88ea98760008730426040518663ffffffff1660e01b8152600401610ee995949392919061152b565b6000604051808303816000875af1158015610f08573d6000803e3d6000fd5b505050506040513d6000823e601f3d908101601f19168201604052610f30919081019061137c565b90506001815111610f795760405162461bcd60e51b8152602060048201526013602482015272125b9d985b1a59081cddd85c081c995cdd5b1d606a1b604482015260640161017a565b80600181518110610f8c57610f8c6111dc565b602002602001015194505050505092915050565b60008083600001516001600160a01b03166338fff2d06040518163ffffffff1660e01b8152600401602060405180830381865afa158015610fe5573d6000803e3d6000fd5b505050506040513d601f19601f8201168201806040525081019061100991906111a1565b905061101884606001516104f5565b6001600160a01b03166352bbbe296040518060c001604052808481526020016000600181111561104a5761104a6115d3565b815260200187602001516001600160a01b0316815260200187604001516001600160a01b03168152602001868152602001604051806020016040528060008152508152506040518060800160405280306001600160a01b03168152602001600015158152602001306001600160a01b03168152602001600015158152506000426040518563ffffffff1660e01b8152600401610cd3949392919061162f565b6001600160a01b03811681146110fe57600080fd5b50565b60006020828403121561111357600080fd5b813561111e816110e9565b9392505050565b60008060006040848603121561113a57600080fd5b833567ffffffffffffffff81111561115157600080fd5b8401601f8101861361116257600080fd5b803567ffffffffffffffff81111561117957600080fd5b86602060a08302840101111561118e57600080fd5b6020918201979096509401359392505050565b6000602082840312156111b357600080fd5b5051919050565b6000602082840312156111cc57600080fd5b8151801515811461111e57600080fd5b634e487b7160e01b600052603260045260246000fd5b803560ff8116811461120357600080fd5b919050565b60006020828403121561121a57600080fd5b61111e826111f2565b634e487b7160e01b600052604160045260246000fd5b604051601f8201601f1916810167ffffffffffffffff8111828210171561126257611262611223565b604052919050565b600060a082840312801561127d57600080fd5b5060405160a0810167ffffffffffffffff811182821017156112a1576112a1611223565b60405282356112af816110e9565b815260208301356112bf816110e9565b602082015260408301356112d2816110e9565b60408201526112e3606084016111f2565b6060820152608083013562ffffff811681146112fe57600080fd5b60808201529392505050565b600060a0820187835286602084015260a0604084015280865180835260c08501915060208801925060005b8181101561135c5783516001600160a01b0316835260209384019390920191600101611335565b50506001600160a01b039590951660608401525050608001529392505050565b60006020828403121561138e57600080fd5b815167ffffffffffffffff8111156113a557600080fd5b8201601f810184136113b657600080fd5b805167ffffffffffffffff8111156113d0576113d0611223565b8060051b6113e060208201611239565b918252602081840181019290810190878411156113fc57600080fd5b6020850194505b8385101561142257845180835260209586019590935090910190611403565b979650505050505050565b81516001600160a01b03908116825260208084015182169083015260408084015162ffffff1690830152606080840151918216908301526101008201905b506080830151608083015260a083015160a083015260c083015160c083015260e08301516114a460e08401826001600160a01b03169052565b5092915050565b6000602082840312156114bd57600080fd5b81518060020b811461111e57600080fd5b81516001600160a01b03908116825260208084015182169083015260408084015160020b908301526060808401519182169083015261010082019061146b565b60006020828403121561152057600080fd5b815161111e816110e9565b600060a0820187835286602084015260a0604084015280865180835260c08501915060208801925060005b818110156115a957835180516001600160a01b0390811685526020808301518216818701526040808401511515908701526060928301519091169185019190915290930192608090920191600101611556565b50506001600160a01b038616606085015291506115c39050565b8260808301529695505050505050565b634e487b7160e01b600052602160045260246000fd5b6000815180845260005b8181101561160f576020818501810151868301820152016115f3565b506000602082860101526020601f19601f83011685010191505092915050565b60e08152845160e0820152600060208601516002811061165f57634e487b7160e01b600052602160045260246000fd5b61010083015260408601516001600160a01b031661012083015260608601516116946101408401826001600160a01b03169052565b50608086015161016083015260a086015160c06101808401526116bb6101a08401826115e9565b9150506116fb602083018680516001600160a01b039081168352602080830151151590840152604080830151909116908301526060908101511515910152565b60a082019390935260c001529291505056fea26469706673582212203782efcf35c2e035cbf0aa179b79f119889aeee3aa8edaa6797773900555a85464736f6c634300081c0033","linkReferences":{}},"methodIdentifiers":{"WETH()":"ad5c4648","quoteArbitrage((address,address,address,uint8,uint24)[],uint256)":"b14743da","rescueTokens(address)":"00ae3bf8"},"id":26}