{"abi":[{"type":"receive","stateMutability":"payable"},{"type":"function","name":"WETH","inputs":[],"outputs":[{"name":"","type":"address","internalType":"contract IWETH"}],"stateMutability":"view"},{"type":"function","name":"quoteArbitrage","inputs":[{"name":"steps","type":"tuple[]","internalType":"struct FlashQuoter.SwapStep[]","components":[{"name":"poolAddress","type":"address","internalType":"address"},{"name":"tokenIn","type":"address","internalType":"address"},{"name":"tokenOut","type":"address","internalType":"address"},{"name":"protocol","type":"uint8","internalType":"uint8"},{"name":"fee","type":"uint24","internalType":"uint24"}]},{"name":"amount","type":"uint256","internalType":"uint256"}],"outputs":[{"name":"","type":"uint256[]","internalType":"uint256[]"}],"stateMutability":"nonpayable"},{"type":"function","name":"rescueTokens","inputs":[{"name":"token","type":"address","internalType":"address"}],"outputs":[],"stateMutability":"nonpayable"}],"bytecode":{"object":"0x6080604052348015600f57600080fd5b50611bf38061001f6000396000f3fe6080604052600436106100375760003560e01c8062ae3bf814610043578063ad5c464814610065578063b14743da1461009d57600080fd5b3661003e57005b600080fd5b34801561004f57600080fd5b5061006361005e3660046114eb565b6100ca565b005b34801561007157600080fd5b506100806006602160991b0181565b6040516001600160a01b0390911681526020015b60405180910390f35b3480156100a957600080fd5b506100bd6100b836600461150f565b6101f8565b604051610094919061158b565b6040516370a0823160e01b81523060048201526000906001600160a01b038316906370a0823190602401602060405180830381865afa158015610111573d6000803e3d6000fd5b505050506040513d601f19601f8201168201806040525081019061013591906115c3565b9050600081116101825760405162461bcd60e51b81526020600482015260136024820152724e6f20746f6b656e7320746f2072657363756560681b60448201526064015b60405180910390fd5b60405163a9059cbb60e01b8152336004820152602481018290526001600160a01b0383169063a9059cbb906044016020604051808303816000875af11580156101cf573d6000803e3d6000fd5b505050506040513d601f19601f820116820180604052508101906101f391906115dc565b505050565b6060826102365760405162461bcd60e51b815260206004820152600c60248201526b092dcecc2d8d2c840e0c2e8d60a31b6044820152606401610179565b600082116102775760405162461bcd60e51b815260206004820152600e60248201526d125b9d985b1a5908185b5bdd5b9d60921b6044820152606401610179565b6040516323b872dd60e01b8152336004820152306024820152604481018390526006602160991b01906323b872dd906064016020604051808303816000875af11580156102c8573d6000803e3d6000fd5b505050506040513d601f19601f820116820180604052508101906102ec91906115dc565b61032f5760405162461bcd60e51b815260206004820152601460248201527315d15512081d1c985b9cd9995c8819985a5b195960621b6044820152606401610179565b600061033c846001611614565b67ffffffffffffffff81111561035457610354611627565b60405190808252806020026020018201604052801561037d578160200160208202803683370190505b50905082816000815181106103945761039461163d565b60209081029190910101528260005b858110156105835760008787838181106103bf576103bf61163d565b905060a0020160200160208101906103d791906114eb565b6040516370a0823160e01b81523060048201526001600160a01b0391909116906370a0823190602401602060405180830381865afa15801561041d573d6000803e3d6000fd5b505050506040513d601f19601f8201168201806040525081019061044191906115c3565b90508787838181106104555761045561163d565b905060a00201602001602081019061046d91906114eb565b6001600160a01b031663095ea7b36104ad8a8a868181106104905761049061163d565b905060a0020160600160208101906104a89190611669565b61058e565b6040516001600160e01b031960e084901b1681526001600160a01b039091166004820152602481018490526044016020604051808303816000875af11580156104fa573d6000803e3d6000fd5b505050506040513d601f19601f8201168201806040525081019061051e91906115dc565b506105508888848181106105345761053461163d565b905060a0020180360381019061054a91906116b5565b82610851565b9250828461055f846001611614565b8151811061056f5761056f61163d565b6020908102919091010152506001016103a3565b509095945050505050565b60008160ff166000036105b65750734752ba5dbc23f44d87826276bf6fd6b1c372ad24919050565b8160ff166001036105dc5750736bded42c6da8fbf0d2ba55b2fa120c5e0c8d7891919050565b8160ff166002036106025750738cfe327cec66d1c090dd72bd0ff11d690c33a2eb919050565b8160ff16600303610628575073327df1e6de05895d2ab08513aadd9313fe505d86919050565b8160ff1660040361064e575073aaa3b1f1bd7bcc97fd1917c18ade665c5d31f066919050565b8160ff166005036106745750738c1a3cf8f83074169fe5d7ad50b978e1cd6b37c7919050565b8160ff1660060361069a575073ca4eaa32e7081b0c4ba47e2bdf9b7163907fe56f919050565b8160ff166007036106c05750732626664c2603336e57b271c5c0b26f421741e481919050565b8160ff166008036106e6575073b20c411fc84fbb27e78608c24d0056d974ea9411919050565b8160ff1660090361070c575073195fbc5b8fbd5ac739c1ba57d4ef6d5a704f34f7919050565b8160ff16600a03610732575073678aa4bf4e210cf2166753e054d5b7c31cc7fa86919050565b8160ff16600b03610758575073fb7ef66a7e61224dd6fcd0d7d9c3be5c8b049b9f919050565b8160ff16600c0361077e575073756c6bbdd915202adac7bebb1c6c89ac0886503f919050565b8160ff16600d036107a45750731b8eea9315be495187d873da7773a874545d9d48919050565b8160ff16600e036107ca575073be6d8f0d05cc4be24d5167a3ef062215be6d18a5919050565b8160ff16600f036107f0575073cf77a3ba9a5ca399b7c97c74d54e5b1beb874e43919050565b8160ff16601003610816575073ba12222222228d8ba445958a75a0704d566bf2c8919050565b60405162461bcd60e51b815260206004820152601060248201526f125b9d985b1a59081c1c9bdd1bd8dbdb60821b6044820152606401610179565b60006006836060015160ff16116108735761086c838361091c565b9050610916565b600d836060015160ff161161088c5761086c8383610d07565b826060015160ff16600e036108a55761086c8383610ebd565b826060015160ff16600f036108be5761086c8383611015565b826060015160ff166010036108d75761086c8383611297565b60405162461bcd60e51b8152602060048201526014602482015273155b9cdd5c1c1bdc9d1959081c1c9bdd1bd8dbdb60621b6044820152606401610179565b92915050565b60008083600001519050600080826001600160a01b0316630902f1ac6040518163ffffffff1660e01b8152600401606060405180830381865afa158015610967573d6000803e3d6000fd5b505050506040513d601f19601f8201168201806040525081019061098b919061176c565b50915091506000836001600160a01b0316630dfe16816040518163ffffffff1660e01b8152600401602060405180830381865afa1580156109d0573d6000803e3d6000fd5b505050506040513d601f19601f820116820180604052508101906109f491906117bc565b90506000846001600160a01b031663c45a01556040518163ffffffff1660e01b8152600401602060405180830381865afa158015610a36573d6000803e3d6000fd5b505050506040513d601f19601f82011682018060405250810190610a5a91906117bc565b905060006001600160a01b038216738909dc15e40173ff4699343b6eb8132c65e18ec603610a8b57506126f2610b95565b6001600160a01b0382167371524b4f93c58fcbf659783284e38825f062285903610ab857506126f2610b95565b6001600160a01b0382167302a84c1b3bbd7401a5f7fa98a384ebc70bb5749e03610ae557506126f7610b95565b6001600160a01b0382167304c9f118d21e8b767d2e50c946f0cc9f6c36730003610b1257506126f2610b95565b6001600160a01b03821673fda619b6d20975be80a10332cd39b9a4b0faa8bb03610b3f57506126f7610b95565b6001600160a01b03821673591f122d1df761e616c13d265006fcbf4c6d655103610b6c57506126f7610b95565b6001600160a01b038216733e84d913803b02a4a7f027165e8ca42c14c0fde703610b9557506127005b6020890151895160405163a9059cbb60e01b81526001600160a01b039182166004820152602481018b905291169063a9059cbb906044016020604051808303816000875af1158015610beb573d6000803e3d6000fd5b505050506040513d601f19601f82011682018060405250810190610c0f91906115dc565b506000806000856001600160a01b03168c602001516001600160a01b031603610c5e57610c508b896001600160701b0316896001600160701b0316876113e0565b925060009150829050610c86565b610c7c8b886001600160701b03168a6001600160701b0316876113e0565b9250829150600090505b6040805160008152602081019182905263022c0d9f60e01b9091526001600160a01b038a169063022c0d9f90610cc5908590859030906024810161181f565b600060405180830381600087803b158015610cdf57600080fd5b505af1158015610cf3573d6000803e3d6000fd5b50949e9d5050505050505050505050505050565b6000600a836060015160ff1611610e1557610d25836060015161058e565b6040805160e0810182526020808701516001600160a01b03908116835287840151811691830191825260808089015162ffffff90811685870190815230606087019081529286018a8152600060a0880181815260c0890191825298516304e45aaf60e01b815297518616600489015295518516602488015290519091166044860152905182166064850152516084840152925160a483015251821660c48201529116906304e45aaf9060e4015b6020604051808303816000875af1158015610df1573d6000803e3d6000fd5b505050506040513d601f19601f8201168201806040525081019061086c91906115c3565b610e22836060015161058e565b6001600160a01b031663414bf38960405180610100016040528086602001516001600160a01b0316815260200186604001516001600160a01b03168152602001866080015162ffffff168152602001306001600160a01b031681526020014281526020018581526020016000815260200160006001600160a01b03168152506040518263ffffffff1660e01b8152600401610dd29190611856565b60008083600001516001600160a01b031663d0c93a7c6040518163ffffffff1660e01b8152600401602060405180830381865afa158015610f02573d6000803e3d6000fd5b505050506040513d601f19601f82011682018060405250810190610f2691906118d4565b9050610f35846060015161058e565b6001600160a01b031663a026383e60405180610100016040528087602001516001600160a01b0316815260200187604001516001600160a01b031681526020018460020b8152602001306001600160a01b031681526020014281526020018681526020016000815260200160006001600160a01b03168152506040518263ffffffff1660e01b8152600401610fca91906118f7565b6020604051808303816000875af1158015610fe9573d6000803e3d6000fd5b505050506040513d601f19601f8201168201806040525081019061100d91906115c3565b949350505050565b604080516001808252818301909252600091829190816020015b60408051608081018252600080825260208083018290529282018190526060820152825260001990920191018161102f579050509050600084600001516001600160a01b03166322be3de16040518163ffffffff1660e01b8152600401602060405180830381865afa1580156110a9573d6000803e3d6000fd5b505050506040513d601f19601f820116820180604052508101906110cd91906115dc565b9050600085600001516001600160a01b031663c45a01556040518163ffffffff1660e01b8152600401602060405180830381865afa158015611113573d6000803e3d6000fd5b505050506040513d601f19601f8201168201806040525081019061113791906117bc565b9050604051806080016040528087602001516001600160a01b0316815260200187604001516001600160a01b031681526020018315158152602001826001600160a01b0316815250836000815181106111925761119261163d565b602002602001018190525060006111ac876060015161058e565b6001600160a01b031663cac88ea98760008730426040518663ffffffff1660e01b81526004016111e0959493929190611937565b6000604051808303816000875af11580156111ff573d6000803e3d6000fd5b505050506040513d6000823e601f3d908101601f1916820160405261122791908101906119df565b905060018151116112705760405162461bcd60e51b8152602060048201526013602482015272125b9d985b1a59081cddd85c081c995cdd5b1d606a1b6044820152606401610179565b806001815181106112835761128361163d565b602002602001015194505050505092915050565b60008083600001516001600160a01b03166338fff2d06040518163ffffffff1660e01b8152600401602060405180830381865afa1580156112dc573d6000803e3d6000fd5b505050506040513d601f19601f8201168201806040525081019061130091906115c3565b905061130f846060015161058e565b6001600160a01b03166352bbbe296040518060c001604052808481526020016000600181111561134157611341611a90565b815260200187602001516001600160a01b0316815260200187604001516001600160a01b03168152602001868152602001604051806020016040528060008152508152506040518060800160405280306001600160a01b03168152602001600015158152602001306001600160a01b03168152602001600015158152506000426040518563ffffffff1660e01b8152600401610fca9493929190611aa6565b60008085116114315760405162461bcd60e51b815260206004820152601960248201527f494e53554646494349454e545f494e5055545f414d4f554e54000000000000006044820152606401610179565b6000841180156114415750600083115b6114865760405162461bcd60e51b8152602060048201526016602482015275494e53554646494349454e545f4c495155494449545960501b6044820152606401610179565b60006114928387611b84565b905060006114a08583611b84565b90506000826114b188612710611b84565b6114bb9190611614565b90506114c78183611b9b565b98975050505050505050565b6001600160a01b03811681146114e857600080fd5b50565b6000602082840312156114fd57600080fd5b8135611508816114d3565b9392505050565b60008060006040848603121561152457600080fd5b833567ffffffffffffffff81111561153b57600080fd5b8401601f8101861361154c57600080fd5b803567ffffffffffffffff81111561156357600080fd5b86602060a08302840101111561157857600080fd5b6020918201979096509401359392505050565b602080825282518282018190526000918401906040840190835b818110156105835783518352602093840193909201916001016115a5565b6000602082840312156115d557600080fd5b5051919050565b6000602082840312156115ee57600080fd5b8151801515811461150857600080fd5b634e487b7160e01b600052601160045260246000fd5b80820180821115610916576109166115fe565b634e487b7160e01b600052604160045260246000fd5b634e487b7160e01b600052603260045260246000fd5b803560ff8116811461166457600080fd5b919050565b60006020828403121561167b57600080fd5b61150882611653565b604051601f8201601f1916810167ffffffffffffffff811182821017156116ad576116ad611627565b604052919050565b600060a08284031280156116c857600080fd5b5060405160a0810167ffffffffffffffff811182821017156116ec576116ec611627565b60405282356116fa816114d3565b8152602083013561170a816114d3565b6020820152604083013561171d816114d3565b604082015261172e60608401611653565b6060820152608083013562ffffff8116811461174957600080fd5b60808201529392505050565b80516001600160701b038116811461166457600080fd5b60008060006060848603121561178157600080fd5b61178a84611755565b925061179860208501611755565b9150604084015163ffffffff811681146117b157600080fd5b809150509250925092565b6000602082840312156117ce57600080fd5b8151611508816114d3565b6000815180845260005b818110156117ff576020818501810151868301820152016117e3565b506000602082860101526020601f19601f83011685010191505092915050565b84815283602082015260018060a01b038316604082015260806060820152600061184c60808301846117d9565b9695505050505050565b81516001600160a01b03908116825260208084015182169083015260408084015162ffffff1690830152606080840151918216908301526101008201905b506080830151608083015260a083015160a083015260c083015160c083015260e08301516118cd60e08401826001600160a01b03169052565b5092915050565b6000602082840312156118e657600080fd5b81518060020b811461150857600080fd5b81516001600160a01b03908116825260208084015182169083015260408084015160020b9083015260608084015191821690830152610100820190611894565b600060a0820187835286602084015260a0604084015280865180835260c08501915060208801925060005b818110156119b557835180516001600160a01b0390811685526020808301518216818701526040808401511515908701526060928301519091169185019190915290930192608090920191600101611962565b50506001600160a01b038616606085015291506119cf9050565b8260808301529695505050505050565b6000602082840312156119f157600080fd5b815167ffffffffffffffff811115611a0857600080fd5b8201601f81018413611a1957600080fd5b805167ffffffffffffffff811115611a3357611a33611627565b8060051b611a4360208201611684565b91825260208184018101929081019087841115611a5f57600080fd5b6020850194505b83851015611a8557845180835260209586019590935090910190611a66565b979650505050505050565b634e487b7160e01b600052602160045260246000fd5b60e08152845160e08201526000602086015160028110611ad657634e487b7160e01b600052602160045260246000fd5b61010083015260408601516001600160a01b03166101208301526060860151611b0b6101408401826001600160a01b03169052565b50608086015161016083015260a086015160c0610180840152611b326101a08401826117d9565b915050611b72602083018680516001600160a01b039081168352602080830151151590840152604080830151909116908301526060908101511515910152565b60a082019390935260c0015292915050565b8082028115828204841417610916576109166115fe565b600082611bb857634e487b7160e01b600052601260045260246000fd5b50049056fea264697066735822122056d18a3056734b56ea62492f5a6db3e02a09c7b69af3f9171f33b1215fc640c964736f6c634300081c0033","linkReferences":{}},"methodIdentifiers":{"WETH()":"ad5c4648","quoteArbitrage((address,address,address,uint8,uint24)[],uint256)":"b14743da","rescueTokens(address)":"00ae3bf8"},"id":26}