{"abi":[{"type":"constructor","inputs":[{"name":"_pool","type":"address","internalType":"address"},{"name":"_routers","type":"address[]","internalType":"address[]"}],"stateMutability":"nonpayable"},{"type":"receive","stateMutability":"payable"},{"type":"function","name":"executeArbitrage","inputs":[{"name":"steps","type":"tuple[]","internalType":"struct FlashSwap.SwapStep[]","components":[{"name":"poolAddress","type":"address","internalType":"address"},{"name":"tokenIn","type":"address","internalType":"address"},{"name":"tokenOut","type":"address","internalType":"address"},{"name":"protocol","type":"uint8","internalType":"uint8"},{"name":"fee","type":"uint24","internalType":"uint24"}]},{"name":"amount","type":"uint256","internalType":"uint256"}],"outputs":[],"stateMutability":"nonpayable"},{"type":"function","name":"executeOperation","inputs":[{"name":"asset","type":"address","internalType":"address"},{"name":"amount","type":"uint256","internalType":"uint256"},{"name":"premium","type":"uint256","internalType":"uint256"},{"name":"","type":"address","internalType":"address"},{"name":"params","type":"bytes","internalType":"bytes"}],"outputs":[{"name":"","type":"bool","internalType":"bool"}],"stateMutability":"nonpayable"},{"type":"function","name":"rescueTokens","inputs":[{"name":"token","type":"address","internalType":"address"}],"outputs":[],"stateMutability":"nonpayable"}],"bytecode":{"object":"0x60a060405234801561001057600080fd5b5060405161193f38038061193f83398101604081905261002f91610103565b6001600160a01b038216608052805161004f906000906020840190610057565b5050506101e6565b8280548282559060005260206000209081019282156100ac579160200282015b828111156100ac57825182546001600160a01b0319166001600160a01b03909116178255602090920191600190910190610077565b506100b89291506100bc565b5090565b5b808211156100b857600081556001016100bd565b80516001600160a01b03811681146100e857600080fd5b919050565b634e487b7160e01b600052604160045260246000fd5b6000806040838503121561011657600080fd5b61011f836100d1565b60208401519092506001600160401b0381111561013b57600080fd5b8301601f8101851361014c57600080fd5b80516001600160401b03811115610165576101656100ed565b604051600582901b90603f8201601f191681016001600160401b0381118282101715610193576101936100ed565b6040529182526020818401810192908101888411156101b157600080fd5b6020850194505b838510156101d7576101c9856100d1565b8152602094850194016101b8565b50809450505050509250929050565b60805161173061020f600039600081816101f4015281816103a401526104c901526117306000f3fe6080604052600436106100375760003560e01c8062ae3bf8146100435780631b11d0ff14610065578063e0d824df1461009957600080fd5b3661003e57005b600080fd5b34801561004f57600080fd5b5061006361005e366004610e88565b6100b9565b005b34801561007157600080fd5b50610085610080366004610ea5565b6101e7565b604051901515815260200160405180910390f35b3480156100a557600080fd5b506100636100b4366004610f52565b6104c7565b6040516370a0823160e01b81523060048201526000906001600160a01b038316906370a0823190602401602060405180830381865afa158015610100573d6000803e3d6000fd5b505050506040513d601f19601f820116820180604052508101906101249190610fce565b9050600081116101715760405162461bcd60e51b81526020600482015260136024820152724e6f20746f6b656e7320746f2072657363756560681b60448201526064015b60405180910390fd5b60405163a9059cbb60e01b8152336004820152602481018290526001600160a01b0383169063a9059cbb906044016020604051808303816000875af11580156101be573d6000803e3d6000fd5b505050506040513d601f19601f820116820180604052508101906101e29190610fe7565b505050565b6000336001600160a01b037f000000000000000000000000000000000000000000000000000000000000000016146102615760405162461bcd60e51b815260206004820152601b60248201527f43616c6c6572206d757374206265206c656e64696e6720706f6f6c00000000006044820152606401610168565b600080610270848601866110d1565b81519193509150889060005b818110156102b1576102a7858281518110610299576102996111ec565b6020026020010151846105a0565b925060010161027c565b5060006102be8a8c611218565b6040516370a0823160e01b81523060048201529091506000906001600160a01b038e16906370a0823190602401602060405180830381865afa158015610308573d6000803e3d6000fd5b505050506040513d601f19601f8201168201806040525081019061032c9190610fce565b90508181101561038d5760405162461bcd60e51b815260206004820152602660248201527f496e73756666696369656e742066756e647320746f20726570617920666c617360448201526534103637b0b760d11b6064820152608401610168565b60405163095ea7b360e01b81526001600160a01b037f000000000000000000000000000000000000000000000000000000000000000081166004830152602482018490528e169063095ea7b3906044016020604051808303816000875af11580156103fc573d6000803e3d6000fd5b505050506040513d601f19601f820116820180604052508101906104209190610fe7565b50818111156104b4576001600160a01b038d1663a9059cbb86610443858561122b565b6040516001600160e01b031960e085901b1681526001600160a01b03909216600483015260248201526044016020604051808303816000875af115801561048e573d6000803e3d6000fd5b505050506040513d601f19601f820116820180604052508101906104b29190610fe7565b505b5060019c9b505050505050505050505050565b7f00000000000000000000000000000000000000000000000000000000000000006001600160a01b03166342b0b77c308585600081811061050a5761050a6111ec565b905060a0020160200160208101906105229190610e88565b848787336040516020016105389392919061123e565b60405160208183030381529060405260006040518663ffffffff1660e01b8152600401610569959493929190611342565b600060405180830381600087803b15801561058357600080fd5b505af1158015610597573d6000803e3d6000fd5b50505050505050565b600082602001516001600160a01b031663095ea7b36000856060015160ff16815481106105cf576105cf6111ec565b60009182526020909120015460405160e083901b6001600160e01b03191681526001600160a01b039091166004820152602481018590526044016020604051808303816000875af1158015610628573d6000803e3d6000fd5b505050506040513d601f19601f8201168201806040525081019061064c9190610fe7565b506006836060015160ff161161066d576106668383610716565b9050610710565b600d836060015160ff161161068657610666838361086d565b826060015160ff16600e0361069f576106668383610a32565b826060015160ff16600f036106b8576106668383610b85565b826060015160ff166010036106d1576106668383610d67565b60405162461bcd60e51b8152602060048201526014602482015273155b9cdd5c1c1bdc9d1959081c1c9bdd1bd8dbdb60621b6044820152606401610168565b92915050565b60408051600280825260608201835260009283929190602083019080368337019050509050836020015181600081518110610753576107536111ec565b60200260200101906001600160a01b031690816001600160a01b03168152505083604001518160018151811061078b5761078b6111ec565b60200260200101906001600160a01b031690816001600160a01b0316815250506000846060015160ff16815481106107c5576107c56111ec565b60009182526020822001546040516338ed173960e01b81526001600160a01b03909116916338ed17399161080391879186903090429060040161138b565b6000604051808303816000875af1158015610822573d6000803e3d6000fd5b505050506040513d6000823e601f3d908101601f1916820160405261084a91908101906113fd565b60018151811061085c5761085c6111ec565b602002602001015191505092915050565b6000600a836060015160ff1611610990576000836060015160ff1681548110610898576108986111ec565b6000918252602080832091909101546040805160e081018252878401516001600160a01b0390811682528883015181169482019485526080808a015162ffffff90811684860190815230606086019081529285018b815260a086018a815260c087019a8b5296516304e45aaf60e01b815295518516600487015297518416602486015251166044840152518116606483015293516084820152905160a48201529251821660c484015216906304e45aaf9060e4015b6020604051808303816000875af115801561096c573d6000803e3d6000fd5b505050506040513d601f19601f820116820180604052508101906106669190610fce565b6000836060015160ff16815481106109aa576109aa6111ec565b60009182526020808320909101546040805161010081018252878401516001600160a01b0390811682528883015181169482019490945260808089015162ffffff1682840152306060830152429082015260a0810187905260c0810185905260e08101949094525163414bf38960e01b815291169163414bf3899161094d9190600401611493565b60008083600001516001600160a01b031663d0c93a7c6040518163ffffffff1660e01b8152600401602060405180830381865afa158015610a77573d6000803e3d6000fd5b505050506040513d601f19601f82011682018060405250810190610a9b9190611511565b90506000846060015160ff1681548110610ab757610ab76111ec565b60009182526020808320909101546040805161010081018252888401516001600160a01b03908116825289830151811694820194909452600286900b8183015230606082015242608082015260a0810188905260c0810185905260e0810194909452516350131c1f60e11b815291169163a026383e91610b3a9190600401611534565b6020604051808303816000875af1158015610b59573d6000803e3d6000fd5b505050506040513d601f19601f82011682018060405250810190610b7d9190610fce565b949350505050565b604080516001808252818301909252600091829190816020015b604080516080810182526000808252602080830182905292820181905260608201528252600019909201910181610b9f579050509050600084600001516001600160a01b03166322be3de16040518163ffffffff1660e01b8152600401602060405180830381865afa158015610c19573d6000803e3d6000fd5b505050506040513d601f19601f82011682018060405250810190610c3d9190610fe7565b9050604051806080016040528086602001516001600160a01b0316815260200186604001516001600160a01b03168152602001821515815260200160006001600160a01b031681525082600081518110610c9957610c996111ec565b60200260200101819052506000856060015160ff1681548110610cbe57610cbe6111ec565b600091825260208220015460405163cac88ea960e01b81526001600160a01b039091169163cac88ea991610cfc918891879030904290600401611574565b6000604051808303816000875af1158015610d1b573d6000803e3d6000fd5b505050506040513d6000823e601f3d908101601f19168201604052610d4391908101906113fd565b600181518110610d5557610d556111ec565b60200260200101519250505092915050565b600080836060015160ff1681548110610d8257610d826111ec565b6000918252602080832091909101546040805160c08101825287516001600160a01b0390811682528185018690528885015181168284015288830151811660608084019190915260808084018a90528451808801865288815260a0850152845190810185523080825296810188905280850196909652850186905291516352bbbe2960e01b815291909216936352bbbe2993610e269392909190429060040161161c565b6020604051808303816000875af1158015610e45573d6000803e3d6000fd5b505050506040513d601f19601f82011682018060405250810190610e699190610fce565b9392505050565b6001600160a01b0381168114610e8557600080fd5b50565b600060208284031215610e9a57600080fd5b8135610e6981610e70565b60008060008060008060a08789031215610ebe57600080fd5b8635610ec981610e70565b955060208701359450604087013593506060870135610ee781610e70565b9250608087013567ffffffffffffffff811115610f0357600080fd5b8701601f81018913610f1457600080fd5b803567ffffffffffffffff811115610f2b57600080fd5b896020828401011115610f3d57600080fd5b60208201935080925050509295509295509295565b600080600060408486031215610f6757600080fd5b833567ffffffffffffffff811115610f7e57600080fd5b8401601f81018613610f8f57600080fd5b803567ffffffffffffffff811115610fa657600080fd5b86602060a083028401011115610fbb57600080fd5b6020918201979096509401359392505050565b600060208284031215610fe057600080fd5b5051919050565b600060208284031215610ff957600080fd5b81518015158114610e6957600080fd5b634e487b7160e01b600052604160045260246000fd5b60405160a0810167ffffffffffffffff8111828210171561104257611042611009565b60405290565b604051601f8201601f1916810167ffffffffffffffff8111828210171561107157611071611009565b604052919050565b600067ffffffffffffffff82111561109357611093611009565b5060051b60200190565b803560ff811681146110ae57600080fd5b919050565b803562ffffff811681146110ae57600080fd5b80356110ae81610e70565b600080604083850312156110e457600080fd5b823567ffffffffffffffff8111156110fb57600080fd5b8301601f8101851361110c57600080fd5b803561111f61111a82611079565b611048565b80828252602082019150602060a0840285010192508783111561114157600080fd5b6020840193505b828410156111d15760a0848903121561116057600080fd5b61116861101f565b843561117381610e70565b8152602085013561118381610e70565b6020820152604085013561119681610e70565b60408201526111a76060860161109d565b60608201526111b8608086016110b3565b6080820152825260a09390930192602090910190611148565b94506111e392505050602084016110c6565b90509250929050565b634e487b7160e01b600052603260045260246000fd5b634e487b7160e01b600052601160045260246000fd5b8082018082111561071057610710611202565b8181038181111561071057610710611202565b6040808252810183905260008460608301825b868110156112e357823561126481610e70565b6001600160a01b03168252602083013561127d81610e70565b6001600160a01b03166020830152604083013561129981610e70565b6001600160a01b0316604083015260ff6112b56060850161109d565b16606083015262ffffff6112cb608085016110b3565b16608083015260a09283019290910190600101611251565b506001600160a01b03851660208501529150610b7d9050565b6000815180845260005b8181101561132257602081850181015186830182015201611306565b506000602082860101526020601f19601f83011685010191505092915050565b6001600160a01b038681168252851660208201526040810184905260a060608201819052600090611375908301856112fc565b905061ffff831660808301529695505050505050565b600060a0820187835286602084015260a0604084015280865180835260c08501915060208801925060005b818110156113dd5783516001600160a01b03168352602093840193909201916001016113b6565b50506001600160a01b039590951660608401525050608001529392505050565b60006020828403121561140f57600080fd5b815167ffffffffffffffff81111561142657600080fd5b8201601f8101841361143757600080fd5b805161144561111a82611079565b8082825260208201915060208360051b85010192508683111561146757600080fd5b6020840193505b8284101561148957835182526020938401939091019061146e565b9695505050505050565b81516001600160a01b03908116825260208084015182169083015260408084015162ffffff1690830152606080840151918216908301526101008201905b506080830151608083015260a083015160a083015260c083015160c083015260e083015161150a60e08401826001600160a01b03169052565b5092915050565b60006020828403121561152357600080fd5b81518060020b8114610e6957600080fd5b81516001600160a01b03908116825260208084015182169083015260408084015160020b90830152606080840151918216908301526101008201906114d1565b600060a0820187835286602084015260a0604084015280865180835260c08501915060208801925060005b818110156115f257835180516001600160a01b039081168552602080830151821681870152604080840151151590870152606092830151909116918501919091529093019260809092019160010161159f565b50506001600160a01b0386166060850152915061160c9050565b8260808301529695505050505050565b60e08152845160e0820152600060208601516002811061164c57634e487b7160e01b600052602160045260246000fd5b61010083015260408601516001600160a01b031661012083015260608601516116816101408401826001600160a01b03169052565b50608086015161016083015260a086015160c06101808401526116a86101a08401826112fc565b9150506116e8602083018680516001600160a01b039081168352602080830151151590840152604080830151909116908301526060908101511515910152565b60a082019390935260c001529291505056fea26469706673582212203de0dc0ed54a2ac94621b140b34be95eb7c79d585bb311a45c7226bbd54b522964736f6c634300081b0033","linkReferences":{}},"methodIdentifiers":{"executeArbitrage((address,address,address,uint8,uint24)[],uint256)":"e0d824df","executeOperation(address,uint256,uint256,address,bytes)":"1b11d0ff","rescueTokens(address)":"00ae3bf8"},"id":21}