{"abi":[{"type":"constructor","inputs":[],"stateMutability":"nonpayable"},{"type":"function","name":"DAI","inputs":[],"outputs":[{"name":"","type":"address","internalType":"address"}],"stateMutability":"view"},{"type":"function","name":"UNISWAP_V2_FACTORY","inputs":[],"outputs":[{"name":"","type":"address","internalType":"address"}],"stateMutability":"view"},{"type":"function","name":"WETH","inputs":[],"outputs":[{"name":"","type":"address","internalType":"address"}],"stateMutability":"view"},{"type":"function","name":"check_allowance","inputs":[{"name":"owner","type":"address","internalType":"address"}],"outputs":[{"name":"","type":"uint256","internalType":"uint256"}],"stateMutability":"view"},{"type":"function","name":"flashSwap","inputs":[{"name":"wethAmount","type":"uint256","internalType":"uint256"}],"outputs":[],"stateMutability":"nonpayable"},{"type":"function","name":"pair","inputs":[],"outputs":[{"name":"","type":"address","internalType":"contract IUniswapV2Pair"}],"stateMutability":"view"},{"type":"function","name":"uniswapV2Call","inputs":[{"name":"sender","type":"address","internalType":"address"},{"name":"amount0","type":"uint256","internalType":"uint256"},{"name":"amount1","type":"uint256","internalType":"uint256"},{"name":"data","type":"bytes","internalType":"bytes"}],"outputs":[],"stateMutability":"nonpayable"},{"type":"event","name":"Log","inputs":[{"name":"message","type":"string","indexed":false,"internalType":"string"},{"name":"val","type":"uint256","indexed":false,"internalType":"uint256"}],"anonymous":false},{"type":"error","name":"FlashSwapError","inputs":[{"name":"msgSender","type":"address","internalType":"address"},{"name":"caller","type":"address","internalType":"address"},{"name":"pair","type":"address","internalType":"address"},{"name":"tokenBorrow","type":"address","internalType":"address"},{"name":"amount0","type":"uint256","internalType":"uint256"},{"name":"amount1","type":"uint256","internalType":"uint256"},{"name":"fee","type":"uint256","internalType":"uint256"},{"name":"amountToRepay","type":"uint256","internalType":"uint256"},{"name":"callerBalance","type":"uint256","internalType":"uint256"},{"name":"callerAllowance","type":"uint256","internalType":"uint256"}]}],"bytecode":{"object":"0x60a060405234801561001057600080fd5b5060405163e6a4390560e01b8152736b175474e89094c44da98b954eedeac495271d0f600482015273c02aaa39b223fe8d0a0e5c4f27ead9083c756cc26024820152735c69bee701ef814a2b6a3edd4b1652cb9cc5aa6f9063e6a4390590604401602060405180830381865afa15801561008e573d6000803e3d6000fd5b505050506040513d601f19601f820116820180604052508101906100b29190610189565b6001600160a01b0316608090815260408051808201909152601981527f436f6e7374727563746f723a2070616972206164647265737300000000000000602082015290516101009190610105565b610219565b61014e828260405160240161011b9291906101b9565b60408051601f198184030181529190526020810180516001600160e01b0390811663319af33360e01b1790915261015216565b5050565b6101658161016860201b610eeb1760201c565b50565b80516a636f6e736f6c652e6c6f67602083016000808483855afa5050505050565b60006020828403121561019b57600080fd5b81516001600160a01b03811681146101b257600080fd5b9392505050565b604081526000835180604084015260005b818110156101e757602081870181015160608684010152016101ca565b50600060608285018101919091526001600160a01b03949094166020840152601f01601f191690910190910192915050565b6080516114da6102646000396000818160f50152818161062d01528181610746015281816108030152818161099a01528181610c0701528181610cb60152610e3b01526114da6000f3fe608060405234801561001057600080fd5b506004361061007d5760003560e01c8063a8aa1b311161005b578063a8aa1b31146100f0578063ad5c464814610117578063c10d406214610132578063e0bab4c41461014557600080fd5b806310d1e85c146100825780632af091b11461009757806399d8fae3146100bd575b600080fd5b610095610090366004611000565b610160565b005b6100aa6100a5366004611096565b610aad565b6040519081526020015b60405180910390f35b6100d8735c69bee701ef814a2b6a3edd4b1652cb9cc5aa6f81565b6040516001600160a01b0390911681526020016100b4565b6100d87f000000000000000000000000000000000000000000000000000000000000000081565b6100d873c02aaa39b223fe8d0a0e5c4f27ead9083c756cc281565b6100956101403660046110ba565b610b38565b6100d8736b175474e89094c44da98b954eedeac495271d0f81565b610196604051806040016040528060158152602001741d5b9a5cddd85c158c90d85b1b08195b9d195c9959605a1b815250610f0c565b6101d56040518060400160405280601881526020017f756e6973776170563243616c6c206d73672e73656e646572000000000000000081525033610f52565b61020b604051806040016040528060148152602001733ab734b9bbb0b82b1921b0b6361039b2b73232b960611b81525086610f52565b610242604051806040016040528060158152602001740756e6973776170563243616c6c20616d6f756e743605c1b81525085610f97565b61027960405180604001604052806015815260200174756e6973776170563243616c6c20616d6f756e743160581b81525084610f97565b60408051808201909152601981527f756e6973776170563243616c6c2064617461206c656e6774680000000000000060208201526102b79082610f97565b6000806102c6838501856110d3565b915091506103096040518060400160405280601981526020017f756e6973776170563243616c6c20746f6b656e426f72726f770000000000000081525083610f52565b61033f604051806040016040528060148152602001733ab734b9bbb0b82b1921b0b6361031b0b63632b960611b81525082610f52565b60006103e561034f876003611122565b6103599190611139565b61036490600161115b565b90506000610372828861115b565b90506103a760405180604001604052806011815260200170756e6973776170563243616c6c2066656560781b81525083610f97565b6103e66040518060400160405280601b81526020017f756e6973776170563243616c6c20616d6f756e74546f5265706179000000000081525082610f97565b6040516370a0823160e01b81526001600160a01b038416600482015260009073c02aaa39b223fe8d0a0e5c4f27ead9083c756cc2906370a0823190602401602060405180830381865afa158015610441573d6000803e3d6000fd5b505050506040513d601f19601f82011682018060405250810190610465919061116e565b604051636eb1769f60e11b81526001600160a01b038616600482015230602482015290915060009073c02aaa39b223fe8d0a0e5c4f27ead9083c756cc29063dd62ed3e90604401602060405180830381865afa1580156104c9573d6000803e3d6000fd5b505050506040513d601f19601f820116820180604052508101906104ed919061116e565b905061052e6040518060400160405280601b81526020017f756e6973776170563243616c6c2063616c6c657242616c616e6365000000000081525083610f97565b61056d6040518060400160405280601d81526020017f756e6973776170563243616c6c2063616c6c6572416c6c6f77616e636500000081525082610f97565b6106016040518060600160405280602a8152602001611323602a91396040516370a0823160e01b815230600482015273c02aaa39b223fe8d0a0e5c4f27ead9083c756cc2906370a0823190602401602060405180830381865afa1580156105d8573d6000803e3d6000fd5b505050506040513d601f19601f820116820180604052508101906105fc919061116e565b610f97565b61062260405180606001604052806021815260200161129c60219139610f0c565b336001600160a01b037f00000000000000000000000000000000000000000000000000000000000000001614610673576106736040518060600160405280603b81526020016112e8603b9139610f0c565b6001600160a01b038b1630146106a4576106a46040518060600160405280603781526020016113fc60379139610f0c565b6001600160a01b03861673c02aaa39b223fe8d0a0e5c4f27ead9083c756cc2146106e9576106e960405180606001604052806033815260200161143360339139610f0c565b82821015610712576107126040518060600160405280603d81526020016113bf603d9139610f0c565b8281101561073b5761073b6040518060600160405280603f8152602001611466603f9139610f0c565b336001600160a01b037f00000000000000000000000000000000000000000000000000000000000000001614158061077c57506001600160a01b038b163014155b806107a457506001600160a01b03861673c02aaa39b223fe8d0a0e5c4f27ead9083c756cc214155b806107ae57508282105b806107b857508281105b1561086a576107de6040518060600160405280602b81526020016112bd602b9139610f0c565b604051636703206760e11b81523360048201526001600160a01b0380871660248301527f00000000000000000000000000000000000000000000000000000000000000008116604483015287166064820152608481018b905260a481018a905260c4810185905260e4810184905261010481018390526101248101829052610144015b60405180910390fd5b61088b60405180606001604052806025815260200161137660259139610f0c565b6040516323b872dd60e01b81526001600160a01b03861660048201523060248201526044810184905273c02aaa39b223fe8d0a0e5c4f27ead9083c756cc2906323b872dd906064016020604051808303816000875af11580156108f2573d6000803e3d6000fd5b505050506040513d601f19601f820116820180604052508101906109169190611187565b6109625760405162461bcd60e51b815260206004820152601e60248201527f466c617368537761703a207472616e7366657246726f6d206661696c656400006044820152606401610861565b61098360405180606001604052806029815260200161134d60299139610f0c565b60405163a9059cbb60e01b81526001600160a01b037f00000000000000000000000000000000000000000000000000000000000000001660048201526024810184905273c02aaa39b223fe8d0a0e5c4f27ead9083c756cc29063a9059cbb906044016020604051808303816000875af1158015610a04573d6000803e3d6000fd5b505050506040513d601f19601f82011682018060405250810190610a289190611187565b610a7f5760405162461bcd60e51b815260206004820152602260248201527f466c617368537761703a207472616e7366657220746f2070616972206661696c604482015261195960f21b6064820152608401610861565b610aa060405180606001604052806024815260200161139b60249139610f0c565b5050505050505050505050565b604051636eb1769f60e11b81526001600160a01b038216600482015230602482015260009073c02aaa39b223fe8d0a0e5c4f27ead9083c756cc29063dd62ed3e90604401602060405180830381865afa158015610b0e573d6000803e3d6000fd5b505050506040513d601f19601f82011682018060405250810190610b32919061116e565b92915050565b610b6d60405180604001604052806013815260200172666c617368537761702063616c6c656420627960681b81525033610f52565b610ba46040518060400160405280601581526020017415d1551208185b5bdd5b9d081c995c5d595cdd1959605a1b81525082610f97565b60008111610c055760405162461bcd60e51b815260206004820152602860248201527f466c617368537761703a20616d6f756e74206d75737420626520677265617465604482015267072207468616e20360c41b6064820152608401610861565b7f00000000000000000000000000000000000000000000000000000000000000006001600160a01b0316610c7b5760405162461bcd60e51b815260206004820152601f60248201527f466c617368537761703a2070616972206e6f7420696e697469616c697a6564006044820152606401610861565b610cda6040518060400160405280601781526020017f466c617368537761703a207061697220616464726573730000000000000000008152507f0000000000000000000000000000000000000000000000000000000000000000610f52565b610d196040518060400160405280602081526020017f466c617368537761703a207468697320636f6e7472616374206164647265737381525030610f52565b33610d745760405162461bcd60e51b815260206004820152602560248201527f466c617368537761703a206d73672e73656e646572206973207a65726f206164604482015264647265737360d81b6064820152608401610861565b6040805173c02aaa39b223fe8d0a0e5c4f27ead9083c756cc26020820152338183015281518082038301815260a08201909252601e606082019081527f466c617368537761703a20656e636f6465642064617461206c656e67746800006080909201919091528151610de69190610f97565b610e246040518060400160405280601c81526020017f466c617368537761703a2063616c6c696e6720706169722e7377617000000000815250610f0c565b60405163022c0d9f60e01b81526001600160a01b037f0000000000000000000000000000000000000000000000000000000000000000169063022c0d9f90610e77906000908690309087906004016111ef565b600060405180830381600087803b158015610e9157600080fd5b505af1158015610ea5573d6000803e3d6000fd5b50505050610ee76040518060400160405280601e81526020017f466c617368537761703a20706169722e7377617020636f6d706c657465640000815250610f0c565b5050565b80516a636f6e736f6c652e6c6f67602083016000808483855afa5050505050565b610f4f81604051602401610f209190611226565b60408051601f198184030181529190526020810180516001600160e01b031663104c13eb60e21b179052610fd8565b50565b610ee78282604051602401610f68929190611239565b60408051601f198184030181529190526020810180516001600160e01b031663319af33360e01b179052610fd8565b610ee78282604051602401610fad929190611263565b60408051601f198184030181529190526020810180516001600160e01b03166309710a9d60e41b1790525b610f4f81610eeb565b610fe9611285565b565b6001600160a01b0381168114610f4f57600080fd5b60008060008060006080868803121561101857600080fd5b853561102381610feb565b94506020860135935060408601359250606086013567ffffffffffffffff8082111561104e57600080fd5b818801915088601f83011261106257600080fd5b81358181111561107157600080fd5b89602082850101111561108357600080fd5b9699959850939650602001949392505050565b6000602082840312156110a857600080fd5b81356110b381610feb565b9392505050565b6000602082840312156110cc57600080fd5b5035919050565b600080604083850312156110e657600080fd5b82356110f181610feb565b9150602083013561110181610feb565b809150509250929050565b634e487b7160e01b600052601160045260246000fd5b8082028115828204841417610b3257610b3261110c565b60008261115657634e487b7160e01b600052601260045260246000fd5b500490565b80820180821115610b3257610b3261110c565b60006020828403121561118057600080fd5b5051919050565b60006020828403121561119957600080fd5b815180151581146110b357600080fd5b6000815180845260005b818110156111cf576020818501810151868301820152016111b3565b506000602082860101526020601f19601f83011685010191505092915050565b84815283602082015260018060a01b038316604082015260806060820152600061121c60808301846111a9565b9695505050505050565b6020815260006110b360208301846111a9565b60408152600061124c60408301856111a9565b905060018060a01b03831660208301529392505050565b60408152600061127660408301856111a9565b90508260208301529392505050565b634e487b7160e01b600052605160045260246000fdfe756e6973776170563243616c6c20636865636b696e6720636f6e646974696f6e73756e6973776170563243616c6c20726576657274696e67207769746820466c617368537761704572726f72756e6973776170563243616c6c20636f6e646974696f6e206661696c65643a206d73672e73656e64657220213d2061646472657373287061697229756e6973776170563243616c6c207468697320636f6e7472616374277320574554482062616c616e6365756e6973776170563243616c6c20706572666f726d696e67207472616e7366657220746f2070616972756e6973776170563243616c6c20706572666f726d696e67207472616e7366657246726f6d756e6973776170563243616c6c20636f6d706c65746564207375636365737366756c6c79756e6973776170563243616c6c20636f6e646974696f6e206661696c65643a2063616c6c657242616c616e6365203c20616d6f756e74546f5265706179756e6973776170563243616c6c20636f6e646974696f6e206661696c65643a2073656e64657220213d2061646472657373287468697329756e6973776170563243616c6c20636f6e646974696f6e206661696c65643a20746f6b656e426f72726f7720213d2057455448756e6973776170563243616c6c20636f6e646974696f6e206661696c65643a2063616c6c6572416c6c6f77616e6365203c20616d6f756e74546f5265706179a2646970667358221220bd153eb81faa4f2523fc5fbed794e280946afcf2dcb6dfcde3988e60ec5516eb64736f6c63430008190033","linkReferences":{}},"methodIdentifiers":{"DAI()":"e0bab4c4","UNISWAP_V2_FACTORY()":"99d8fae3","WETH()":"ad5c4648","check_allowance(address)":"2af091b1","flashSwap(uint256)":"c10d4062","pair()":"a8aa1b31","uniswapV2Call(address,uint256,uint256,bytes)":"10d1e85c"},"id":7}