{"abi":[{"type":"receive","stateMutability":"payable"},{"type":"function","name":"getAmountOut","inputs":[{"name":"pool","type":"address","internalType":"address"},{"name":"zeroForOne","type":"bool","internalType":"bool"},{"name":"amountIn","type":"uint256","internalType":"uint256"}],"outputs":[],"stateMutability":"nonpayable"},{"type":"function","name":"maverickV2SwapCallback","inputs":[{"name":"","type":"address","internalType":"contract IERC20"},{"name":"amountIn","type":"uint256","internalType":"uint256"},{"name":"amountOut","type":"uint256","internalType":"uint256"},{"name":"","type":"bytes","internalType":"bytes"}],"outputs":[],"stateMutability":"pure"}],"bytecode":{"object":"0x6080604052348015600f57600080fd5b5061034d8061001f6000396000f3fe60806040526004361061002d5760003560e01c806367ca7c9114610039578063fba21b3d1461005b57600080fd5b3661003457005b600080fd5b34801561004557600080fd5b506100596100543660046101c8565b61007b565b005b34801561006757600080fd5b5061005961007636600461025e565b6100be565b604080516020810186905290810184905260600160408051601f198184030181529082905262461bcd60e51b82526100b5916004016102a4565b60405180910390fd5b6000826100d057637fffffff196100d6565b637fffffff5b60408051608081018252848152851515602082019081526000828401818152600386810b606086019081529551633eece7db60e01b815260016004820181905286516024830152945115156044820152915115156064830152945190940b608485015260c060a485015260c484019190915260e48301529192506001600160a01b03861690633eece7db906101040160408051808303816000875af1158015610183573d6000803e3d6000fd5b505050506040513d601f19601f820116820180604052508101906101a791906102f3565b50505050505050565b6001600160a01b03811681146101c557600080fd5b50565b6000806000806000608086880312156101e057600080fd5b85356101eb816101b0565b94506020860135935060408601359250606086013567ffffffffffffffff8082111561021657600080fd5b818801915088601f83011261022a57600080fd5b81358181111561023957600080fd5b89602082850101111561024b57600080fd5b9699959850939650602001949392505050565b60008060006060848603121561027357600080fd5b833561027e816101b0565b92506020840135801515811461029357600080fd5b929592945050506040919091013590565b60006020808352835180602085015260005b818110156102d2578581018301518582016040015282016102b6565b506000604082860101526040601f19601f8301168501019250505092915050565b6000806040838503121561030657600080fd5b50508051602090910151909290915056fea2646970667358221220dfbaa524a27a1e19db5830b4e943558679c69eb3b135076b22de9d756356475b64736f6c63430008190033","linkReferences":{}},"methodIdentifiers":{"getAmountOut(address,bool,uint256)":"fba21b3d","maverickV2SwapCallback(address,uint256,uint256,bytes)":"67ca7c91"},"id":31}