{"abi":[{"type":"function","name":"swap","inputs":[{"name":"steps","type":"tuple[]","internalType":"struct MultiExchangeSwap.SwapStep[]","components":[{"name":"poolAddress","type":"address","internalType":"address"},{"name":"tokenIn","type":"address","internalType":"address"},{"name":"tokenOut","type":"address","internalType":"address"},{"name":"protocol","type":"uint8","internalType":"enum MultiExchangeSwap.PoolType"}]},{"name":"amountIn","type":"uint256","internalType":"uint256"}],"outputs":[{"name":"","type":"uint256","internalType":"uint256"}],"stateMutability":"nonpayable"}],"bytecode":{"object":"0x6080604052348015600f57600080fd5b50610a4d8061001f6000396000f3fe608060405234801561001057600080fd5b506004361061002b5760003560e01c80639567d0fd14610030575b600080fd5b61004361003e36600461078b565b610055565b60405190815260200160405180910390f35b6000808351116100a55760405162461bcd60e51b8152602060048201526016602482015275139bc81cddd85c081cdd195c1cc81c1c9bdd9a59195960521b60448201526064015b60405180910390fd5b6000836000815181106100ba576100ba610884565b60209081029190910181015101516040516323b872dd60e01b8152336004820152306024820152604481018590529091506001600160a01b038216906323b872dd906064016020604051808303816000875af115801561011e573d6000803e3d6000fd5b505050506040513d601f19601f82011682018060405250810190610142919061089a565b6101805760405162461bcd60e51b815260206004820152600f60248201526e151c985b9cd9995c8819985a5b1959608a1b604482015260640161009c565b8260005b85518110156103a45760008682815181106101a1576101a1610884565b6020026020010151905060006001600160a01b031681602001516001600160a01b0316141580156101de575060408101516001600160a01b031615155b61022a5760405162461bcd60e51b815260206004820152601760248201527f496e76616c696420746f6b656e20616464726573736573000000000000000000604482015260640161009c565b6020810151815160405163095ea7b360e01b81526001600160a01b0391821660048201526024810186905291169063095ea7b3906044016020604051808303816000875af1158015610280573d6000803e3d6000fd5b505050506040513d601f19601f820116820180604052508101906102a4919061089a565b506000816060015160048111156102bd576102bd6108c3565b14806102de57506002816060015160048111156102dc576102dc6108c3565b145b806102fe57506004816060015160048111156102fc576102fc6108c3565b145b156103145761030d8184610499565b925061039b565b60018160600151600481111561032c5761032c6108c3565b148061034d575060038160600151600481111561034b5761034b6108c3565b145b1561035c5761030d81846105d3565b60405162461bcd60e51b8152602060048201526014602482015273155b9cdd5c1c1bdc9d1959081c1c9bdd1bd8dbdb60621b604482015260640161009c565b50600101610184565b50600085600187516103b691906108d9565b815181106103c6576103c6610884565b6020908102919091010151604090810151905163a9059cbb60e01b8152336004820152602481018490529091506001600160a01b0382169063a9059cbb906044016020604051808303816000875af1158015610426573d6000803e3d6000fd5b505050506040513d601f19601f8201168201806040525081019061044a919061089a565b61048e5760405162461bcd60e51b8152602060048201526015602482015274119a5b985b081d1c985b9cd9995c8819985a5b1959605a1b604482015260640161009c565b509150505b92915050565b604080516002808252606082018352600092839291906020830190803683370190505090508360200151816000815181106104d6576104d6610884565b60200260200101906001600160a01b031690816001600160a01b03168152505083604001518160018151811061050e5761050e610884565b6001600160a01b03928316602091820292909201015284516040516338ed173960e01b81529091600091908316906338ed17399061055890889085908890309042906004016108fa565b6000604051808303816000875af1158015610577573d6000803e3d6000fd5b505050506040513d6000823e601f3d908101601f1916820160405261059f919081019061096d565b905080600182516105b091906108d9565b815181106105c0576105c0610884565b6020026020010151935050505092915050565b815160408051610100810182526020808601516001600160a01b039081168352838701518116918301918252610bb88385019081523060608501908152426080860190815260a08601898152600060c0880181815260e08901828152995163414bf38960e01b8152895188166004820152975187166024890152945162ffffff166044880152925185166064870152905160848601525160a4850152905160c48401529351811660e483015292939283169063414bf38990610104016020604051808303816000875af11580156106ae573d6000803e3d6000fd5b505050506040513d601f19601f820116820180604052508101906106d291906109fe565b95945050505050565b634e487b7160e01b600052604160045260246000fd5b6040516080810167ffffffffffffffff81118282101715610714576107146106db565b60405290565b604051601f8201601f1916810167ffffffffffffffff81118282101715610743576107436106db565b604052919050565b600067ffffffffffffffff821115610765576107656106db565b5060051b60200190565b80356001600160a01b038116811461078657600080fd5b919050565b600080604080848603121561079f57600080fd5b833567ffffffffffffffff8111156107b657600080fd5b8401601f810186136107c757600080fd5b803560206107dc6107d78361074b565b61071a565b82815260079290921b830181019181810190898411156107fb57600080fd5b938201935b83851015610874576080858b0312156108195760008081fd5b6108216106f1565b61082a8661076f565b815261083784870161076f565b8482015261084687870161076f565b878201526060808701356005811061085e5760008081fd5b9082015282526080949094019390820190610800565b9997909101359750505050505050565b634e487b7160e01b600052603260045260246000fd5b6000602082840312156108ac57600080fd5b815180151581146108bc57600080fd5b9392505050565b634e487b7160e01b600052602160045260246000fd5b8181038181111561049357634e487b7160e01b600052601160045260246000fd5b600060a08201878352602087602085015260a0604085015281875180845260c08601915060208901935060005b8181101561094c5784516001600160a01b031683529383019391830191600101610927565b50506001600160a01b03969096166060850152505050608001529392505050565b6000602080838503121561098057600080fd5b825167ffffffffffffffff81111561099757600080fd5b8301601f810185136109a857600080fd5b80516109b66107d78261074b565b81815260059190911b820183019083810190878311156109d557600080fd5b928401925b828410156109f3578351825292840192908401906109da565b979650505050505050565b600060208284031215610a1057600080fd5b505191905056fea26469706673582212209855c4197b54208b39c94621c49ec39753b336238334f5cca8100e681b192a3864736f6c63430008190033","linkReferences":{}},"methodIdentifiers":{"swap((address,address,address,uint8)[],uint256)":"9567d0fd"},"id":5}