{"abi":[{"type":"constructor","inputs":[],"stateMutability":"nonpayable"},{"type":"function","name":"router","inputs":[],"outputs":[{"name":"","type":"address","internalType":"contract IUniswapV2Router02"}],"stateMutability":"view"},{"type":"function","name":"swap","inputs":[{"name":"amountIn","type":"uint256","internalType":"uint256"},{"name":"amountOutMin","type":"uint256","internalType":"uint256"},{"name":"path","type":"address[]","internalType":"address[]"},{"name":"deadline","type":"uint256","internalType":"uint256"}],"outputs":[{"name":"amounts","type":"uint256[]","internalType":"uint256[]"}],"stateMutability":"nonpayable"},{"type":"error","name":"AddressEmptyCode","inputs":[{"name":"target","type":"address","internalType":"address"}]},{"type":"error","name":"AddressInsufficientBalance","inputs":[{"name":"account","type":"address","internalType":"address"}]},{"type":"error","name":"DeadlineExceeded","inputs":[{"name":"deadline","type":"uint256","internalType":"uint256"},{"name":"currentTimestamp","type":"uint256","internalType":"uint256"}]},{"type":"error","name":"FailedInnerCall","inputs":[]},{"type":"error","name":"InsufficientAllowance","inputs":[{"name":"required","type":"uint256","internalType":"uint256"},{"name":"allowed","type":"uint256","internalType":"uint256"}]},{"type":"error","name":"InsufficientBalance","inputs":[{"name":"required","type":"uint256","internalType":"uint256"},{"name":"balance","type":"uint256","internalType":"uint256"}]},{"type":"error","name":"InvalidPath","inputs":[]},{"type":"error","name":"SafeERC20FailedOperation","inputs":[{"name":"token","type":"address","internalType":"address"}]},{"type":"error","name":"SwapFailed","inputs":[{"name":"amountIn","type":"uint256","internalType":"uint256"},{"name":"amountOutMin","type":"uint256","internalType":"uint256"}]}],"bytecode":{"object":"0x60a0604052348015600f57600080fd5b50737a250d5630b4cf539739df2c5dacb4c659f2488d60805260805161099461005060003960008181606901528181610285015261031901526109946000f3fe608060405234801561001057600080fd5b50600436106100365760003560e01c8063f10f1f581461003b578063f887ea4014610064575b600080fd5b61004e610049366004610693565b6100a3565b60405161005b919061071e565b60405180910390f35b61008b7f000000000000000000000000000000000000000000000000000000000000000081565b6040516001600160a01b03909116815260200161005b565b606060028310156100c7576040516320db826760e01b815260040160405180910390fd5b428210156100f6576040516324bf66c560e01b8152600481018390524260248201526044015b60405180910390fd5b60008484600081811061010b5761010b610762565b90506020020160208101906101209190610794565b604051636eb1769f60e11b81523360048201523060248201529091506000906001600160a01b0383169063dd62ed3e90604401602060405180830381865afa158015610170573d6000803e3d6000fd5b505050506040513d601f19601f8201168201806040525081019061019491906107af565b9050878110156101c15760405163054365bb60e31b815260048101899052602481018290526044016100ed565b6040516370a0823160e01b81523360048201526000906001600160a01b038416906370a0823190602401602060405180830381865afa158015610208573d6000803e3d6000fd5b505050506040513d601f19601f8201168201806040525081019061022c91906107af565b9050888110156102595760405163cf47918160e01b8152600481018a9052602481018290526044016100ed565b61026e6001600160a01b03841633308c610456565b60405163095ea7b360e01b81526001600160a01b037f000000000000000000000000000000000000000000000000000000000000000081166004830152602482018b905284169063095ea7b3906044016020604051808303816000875af11580156102dd573d6000803e3d6000fd5b505050506040513d601f19601f8201168201806040525081019061030191906107c8565b506040516338ed173960e01b81526001600160a01b037f000000000000000000000000000000000000000000000000000000000000000016906338ed173990610358908c908c908c908c9033908d906004016107ea565b6000604051808303816000875af192505050801561039857506040513d6000823e601f3d908101601f191682016040526103959190810190610871565b60015b6103bf57604051630132b47560e31b8152600481018a9052602481018990526044016100ed565b6040516370a0823160e01b81523060048201529094506000906001600160a01b038516906370a0823190602401602060405180830381865afa158015610409573d6000803e3d6000fd5b505050506040513d601f19601f8201168201806040525081019061042d91906107af565b90508015610449576104496001600160a01b03851633836104c3565b5050505095945050505050565b6040516001600160a01b0384811660248301528381166044830152606482018390526104bd9186918216906323b872dd906084015b604051602081830303815290604052915060e01b6020820180516001600160e01b0383818316178352505050506104f9565b50505050565b6040516001600160a01b038381166024830152604482018390526104f491859182169063a9059cbb9060640161048b565b505050565b600061050e6001600160a01b0384168361055c565b9050805160001415801561053357508080602001905181019061053191906107c8565b155b156104f457604051635274afe760e01b81526001600160a01b03841660048201526024016100ed565b606061056a83836000610571565b9392505050565b6060814710156105965760405163cd78605960e01b81523060048201526024016100ed565b600080856001600160a01b031684866040516105b2919061092f565b60006040518083038185875af1925050503d80600081146105ef576040519150601f19603f3d011682016040523d82523d6000602084013e6105f4565b606091505b509150915061060486838361060e565b9695505050505050565b6060826106235761061e8261066a565b61056a565b815115801561063a57506001600160a01b0384163b155b1561066357604051639996b31560e01b81526001600160a01b03851660048201526024016100ed565b508061056a565b80511561067a5780518082602001fd5b604051630a12f52160e11b815260040160405180910390fd5b6000806000806000608086880312156106ab57600080fd5b8535945060208601359350604086013567ffffffffffffffff808211156106d157600080fd5b818801915088601f8301126106e557600080fd5b8135818111156106f457600080fd5b8960208260051b850101111561070957600080fd5b96999598505060200195606001359392505050565b6020808252825182820181905260009190848201906040850190845b818110156107565783518352928401929184019160010161073a565b50909695505050505050565b634e487b7160e01b600052603260045260246000fd5b80356001600160a01b038116811461078f57600080fd5b919050565b6000602082840312156107a657600080fd5b61056a82610778565b6000602082840312156107c157600080fd5b5051919050565b6000602082840312156107da57600080fd5b8151801515811461056a57600080fd5b868152602080820187905260a0604083018190528201859052600090869060c08401835b8881101561083a576001600160a01b0361082785610778565b168252928201929082019060010161080e565b506001600160a01b0396909616606085015250505060800152949350505050565b634e487b7160e01b600052604160045260246000fd5b6000602080838503121561088457600080fd5b825167ffffffffffffffff8082111561089c57600080fd5b818501915085601f8301126108b057600080fd5b8151818111156108c2576108c261085b565b8060051b604051601f19603f830116810181811085821117156108e7576108e761085b565b60405291825284820192508381018501918883111561090557600080fd5b938501935b828510156109235784518452938501939285019261090a565b98975050505050505050565b6000825160005b818110156109505760208186018101518583015201610936565b50600092019182525091905056fea26469706673582212205d27b29492fdd9fe19201fb9535186cb4d2966bcbb4b3fbc8a9f334bb120733364736f6c63430008190033","linkReferences":{}},"methodIdentifiers":{"router()":"f887ea40","swap(uint256,uint256,address[],uint256)":"f10f1f58"},"id":32}