{"abi":[{"type":"constructor","inputs":[],"stateMutability":"nonpayable"},{"type":"function","name":"amountIn","inputs":[],"outputs":[{"name":"","type":"uint256","internalType":"uint256"}],"stateMutability":"view"},{"type":"function","name":"factory","inputs":[],"outputs":[{"name":"","type":"address","internalType":"contract IUniswapV2Factory"}],"stateMutability":"view"},{"type":"function","name":"getOut","inputs":[{"name":"_amountIn","type":"uint256","internalType":"uint256"},{"name":"_path","type":"address[]","internalType":"address[]"}],"outputs":[{"name":"","type":"uint256","internalType":"uint256"}],"stateMutability":"view"},{"type":"function","name":"initiateFlashSwap","inputs":[{"name":"_tokenBorrow","type":"address","internalType":"address"},{"name":"_amount","type":"uint256","internalType":"uint256"},{"name":"_path","type":"address[]","internalType":"address[]"}],"outputs":[],"stateMutability":"nonpayable"},{"type":"function","name":"initiator","inputs":[],"outputs":[{"name":"","type":"address","internalType":"address"}],"stateMutability":"view"},{"type":"function","name":"path","inputs":[{"name":"","type":"uint256","internalType":"uint256"}],"outputs":[{"name":"","type":"address","internalType":"address"}],"stateMutability":"view"},{"type":"function","name":"rescueTokens","inputs":[{"name":"_token","type":"address","internalType":"address"},{"name":"_amount","type":"uint256","internalType":"uint256"}],"outputs":[],"stateMutability":"nonpayable"},{"type":"function","name":"router","inputs":[],"outputs":[{"name":"","type":"address","internalType":"contract IUniswapV2Router02"}],"stateMutability":"view"},{"type":"function","name":"uniswapV2Call","inputs":[{"name":"sender","type":"address","internalType":"address"},{"name":"amount0","type":"uint256","internalType":"uint256"},{"name":"amount1","type":"uint256","internalType":"uint256"},{"name":"data","type":"bytes","internalType":"bytes"}],"outputs":[],"stateMutability":"nonpayable"},{"type":"event","name":"FlashSwapInitiated","inputs":[{"name":"tokenBorrow","type":"address","indexed":false,"internalType":"address"},{"name":"amount","type":"uint256","indexed":false,"internalType":"uint256"},{"name":"path","type":"address[]","indexed":false,"internalType":"address[]"}],"anonymous":false},{"type":"event","name":"ProfitGenerated","inputs":[{"name":"profit","type":"uint256","indexed":false,"internalType":"uint256"}],"anonymous":false},{"type":"event","name":"SwapCompleted","inputs":[{"name":"amountOut","type":"uint256","indexed":false,"internalType":"uint256"}],"anonymous":false},{"type":"error","name":"AddressEmptyCode","inputs":[{"name":"target","type":"address","internalType":"address"}]},{"type":"error","name":"AddressInsufficientBalance","inputs":[{"name":"account","type":"address","internalType":"address"}]},{"type":"error","name":"FailedInnerCall","inputs":[]},{"type":"error","name":"SafeERC20FailedOperation","inputs":[{"name":"token","type":"address","internalType":"address"}]}],"bytecode":{"object":"0x60c0604052348015600f57600080fd5b50735c69bee701ef814a2b6a3edd4b1652cb9cc5aa6f608052737a250d5630b4cf539739df2c5dacb4c659f2488d60a05260805160a0516113c86100816000396000818161016c0152818161099d0152610abe01526000818161014501528181610285015261067c01526113c86000f3fe608060405234801561001057600080fd5b50600436106100935760003560e01c80636bed55a6116100665780636bed55a614610103578063af6d1fe41461011a578063b49fc5831461012d578063c45a015514610140578063f887ea401461016757600080fd5b806310d1e85c1461009857806357376198146100ad5780635c39fcc1146100c057806365e142b5146100f0575b600080fd5b6100ab6100a6366004610d9b565b61018e565b005b6100ab6100bb366004610e31565b6104f0565b6002546100d3906001600160a01b031681565b6040516001600160a01b0390911681526020015b60405180910390f35b6100ab6100fe366004610e5d565b610568565b61010c60015481565b6040519081526020016100e7565b6100d3610128366004610ee9565b61096e565b61010c61013b366004610fe5565b610998565b6100d37f000000000000000000000000000000000000000000000000000000000000000081565b6100d37f000000000000000000000000000000000000000000000000000000000000000081565b6000336001600160a01b0316630dfe16816040518163ffffffff1660e01b8152600401602060405180830381865afa1580156101ce573d6000803e3d6000fd5b505050506040513d601f19601f820116820180604052508101906101f2919061102c565b90506000336001600160a01b031663d21220a76040518163ffffffff1660e01b8152600401602060405180830381865afa158015610234573d6000803e3d6000fd5b505050506040513d601f19601f82011682018060405250810190610258919061102c565b60405163e6a4390560e01b81526001600160a01b03848116600483015280831660248301529192506000917f0000000000000000000000000000000000000000000000000000000000000000169063e6a4390590604401602060405180830381865afa1580156102cc573d6000803e3d6000fd5b505050506040513d601f19601f820116820180604052508101906102f0919061102c565b9050336001600160a01b0382161461033e5760405162461bcd60e51b815260206004820152600c60248201526b155b985d5d1a1bdc9a5e995960a21b60448201526064015b60405180910390fd5b6001600160a01b03881630146103965760405162461bcd60e51b815260206004820152601c60248201527f53656e646572206d757374206265207468697320636f6e7472616374000000006044820152606401610335565b600080806103a687890189611049565b92509250925060006103b88383610a61565b90507f02f857175b5562dc8e8fe1cc6d39215bf823a07a685f52fba82f1e637d418513816040516103eb91815260200190565b60405180910390a160006103e56104038560036110b8565b61040d91906110cf565b6104189060016110f1565b9050600061042682866110f1565b905061043c6001600160a01b0387163383610b1a565b808311156104e05760006104508285611104565b90506104ab600260009054906101000a90046001600160a01b031682876001895161047b9190611104565b8151811061048b5761048b611117565b60200260200101516001600160a01b0316610b1a9092919063ffffffff16565b6040518181527fcb3b7311e1762fa145efce6ad1e9a8c6a046723e9cab70d3a0753bba5326edd39060200160405180910390a1505b5050505050505050505050505050565b6002546001600160a01b0316331461054a5760405162461bcd60e51b815260206004820181905260248201527f4f6e6c7920696e69746961746f722063616e2072657363756520746f6b656e736044820152606401610335565b600254610564906001600160a01b03848116911683610b1a565b5050565b60028110156105b95760405162461bcd60e51b815260206004820181905260248201527f50617468206d7573742068617665206174206c65617374203220746f6b656e736044820152606401610335565b836001600160a01b0316828260008181106105d6576105d6611117565b90506020020160208101906105eb919061112d565b6001600160a01b0316146106545760405162461bcd60e51b815260206004820152602a60248201527f466972737420746f6b656e20696e2070617468206d75737420626520626f727260448201526937bbb2b2103a37b5b2b760b11b6064820152608401610335565b600183905561066560008383610d0e565b50600280546001600160a01b0319163317905560007f00000000000000000000000000000000000000000000000000000000000000006001600160a01b031663e6a4390586858560018181106106bd576106bd611117565b90506020020160208101906106d2919061112d565b6040516001600160e01b031960e085901b1681526001600160a01b03928316600482015291166024820152604401602060405180830381865afa15801561071d573d6000803e3d6000fd5b505050506040513d601f19601f82011682018060405250810190610741919061102c565b90506001600160a01b03811661078f5760405162461bcd60e51b815260206004820152601360248201527214185a5c88191bd95cc81b9bdd08195e1a5cdd606a1b6044820152606401610335565b6000816001600160a01b0316630dfe16816040518163ffffffff1660e01b8152600401602060405180830381865afa1580156107cf573d6000803e3d6000fd5b505050506040513d601f19601f820116820180604052508101906107f3919061102c565b90506000826001600160a01b031663d21220a76040518163ffffffff1660e01b8152600401602060405180830381865afa158015610835573d6000803e3d6000fd5b505050506040513d601f19601f82011682018060405250810190610859919061102c565b90506000826001600160a01b0316886001600160a01b03161461087d57600061087f565b865b90506000826001600160a01b0316896001600160a01b0316146108a35760006108a5565b875b90506000898989896040516020016108c0949392919061114a565b60405160208183030381529060405290507fac284dc20a8bd8d32bbdff3f9b31522e1d58a5584b7ce48218fefe3d6ded942d8a8a8a8a604051610906949392919061114a565b60405180910390a160405163022c0d9f60e01b81526001600160a01b0387169063022c0d9f906109409086908690309087906004016111d1565b600060405180830381600087803b15801561095a57600080fd5b505af11580156104e0573d6000803e3d6000fd5b6000818154811061097e57600080fd5b6000918252602090912001546001600160a01b0316905081565b6000807f00000000000000000000000000000000000000000000000000000000000000006001600160a01b031663d06ca61f85856040518363ffffffff1660e01b81526004016109e9929190611266565b600060405180830381865afa158015610a06573d6000803e3d6000fd5b505050506040513d6000823e601f3d908101601f19168201604052610a2e9190810190611287565b90508060018251610a3f9190611104565b81518110610a4f57610a4f611117565b60200260200101519150505b92915050565b6000600282511015610aa45760405162461bcd60e51b815260206004820152600c60248201526b092dcecc2d8d2c840e0c2e8d60a31b6044820152606401610335565b6040516338ed173960e01b81526000906001600160a01b037f000000000000000000000000000000000000000000000000000000000000000016906338ed173990610afb9087908590889030904290600401611318565b6000604051808303816000875af1158015610a06573d6000803e3d6000fd5b604080516001600160a01b038416602482015260448082018490528251808303909101815260649091019091526020810180516001600160e01b031663a9059cbb60e01b179052610b6c908490610b71565b505050565b6000610b866001600160a01b03841683610bd4565b90508051600014158015610bab575080806020019051810190610ba99190611354565b155b15610b6c57604051635274afe760e01b81526001600160a01b0384166004820152602401610335565b6060610be283836000610be9565b9392505050565b606081471015610c0e5760405163cd78605960e01b8152306004820152602401610335565b600080856001600160a01b03168486604051610c2a9190611376565b60006040518083038185875af1925050503d8060008114610c67576040519150601f19603f3d011682016040523d82523d6000602084013e610c6c565b606091505b5091509150610c7c868383610c86565b9695505050505050565b606082610c9b57610c9682610ce2565b610be2565b8151158015610cb257506001600160a01b0384163b155b15610cdb57604051639996b31560e01b81526001600160a01b0385166004820152602401610335565b5080610be2565b805115610cf25780518082602001fd5b604051630a12f52160e11b815260040160405180910390fd5b50565b828054828255906000526020600020908101928215610d61579160200282015b82811115610d615781546001600160a01b0319166001600160a01b03843516178255602090920191600190910190610d2e565b50610d6d929150610d71565b5090565b5b80821115610d6d5760008155600101610d72565b6001600160a01b0381168114610d0b57600080fd5b600080600080600060808688031215610db357600080fd5b8535610dbe81610d86565b94506020860135935060408601359250606086013567ffffffffffffffff80821115610de957600080fd5b818801915088601f830112610dfd57600080fd5b813581811115610e0c57600080fd5b896020828501011115610e1e57600080fd5b9699959850939650602001949392505050565b60008060408385031215610e4457600080fd5b8235610e4f81610d86565b946020939093013593505050565b60008060008060608587031215610e7357600080fd5b8435610e7e81610d86565b935060208501359250604085013567ffffffffffffffff80821115610ea257600080fd5b818701915087601f830112610eb657600080fd5b813581811115610ec557600080fd5b8860208260051b8501011115610eda57600080fd5b95989497505060200194505050565b600060208284031215610efb57600080fd5b5035919050565b634e487b7160e01b600052604160045260246000fd5b604051601f8201601f1916810167ffffffffffffffff81118282101715610f4157610f41610f02565b604052919050565b600067ffffffffffffffff821115610f6357610f63610f02565b5060051b60200190565b600082601f830112610f7e57600080fd5b81356020610f93610f8e83610f49565b610f18565b8083825260208201915060208460051b870101935086841115610fb557600080fd5b602086015b84811015610fda578035610fcd81610d86565b8352918301918301610fba565b509695505050505050565b60008060408385031215610ff857600080fd5b82359150602083013567ffffffffffffffff81111561101657600080fd5b61102285828601610f6d565b9150509250929050565b60006020828403121561103e57600080fd5b8151610be281610d86565b60008060006060848603121561105e57600080fd5b833561106981610d86565b925060208401359150604084013567ffffffffffffffff81111561108c57600080fd5b61109886828701610f6d565b9150509250925092565b634e487b7160e01b600052601160045260246000fd5b8082028115828204841417610a5b57610a5b6110a2565b6000826110ec57634e487b7160e01b600052601260045260246000fd5b500490565b80820180821115610a5b57610a5b6110a2565b81810381811115610a5b57610a5b6110a2565b634e487b7160e01b600052603260045260246000fd5b60006020828403121561113f57600080fd5b8135610be281610d86565b6001600160a01b03858116825260208083018690526060604084018190528301849052600091859160808501845b8781101561119f57843561118b81610d86565b841682529382019390820190600101611178565b509998505050505050505050565b60005b838110156111c85781810151838201526020016111b0565b50506000910152565b84815283602082015260018060a01b0383166040820152608060608201526000825180608084015261120a8160a08501602087016111ad565b601f01601f19169190910160a00195945050505050565b60008151808452602080850194506020840160005b8381101561125b5781516001600160a01b031687529582019590820190600101611236565b509495945050505050565b82815260406020820152600061127f6040830184611221565b949350505050565b6000602080838503121561129a57600080fd5b825167ffffffffffffffff8111156112b157600080fd5b8301601f810185136112c257600080fd5b80516112d0610f8e82610f49565b81815260059190911b820183019083810190878311156112ef57600080fd5b928401925b8284101561130d578351825292840192908401906112f4565b979650505050505050565b85815284602082015260a06040820152600061133760a0830186611221565b6001600160a01b0394909416606083015250608001529392505050565b60006020828403121561136657600080fd5b81518015158114610be257600080fd5b600082516113888184602087016111ad565b919091019291505056fea264697066735822122007b6c087e4acd224ce83e71d18ac0624e753b48a7183b7dc4528d592967e57ee64736f6c63430008190033","linkReferences":{}},"methodIdentifiers":{"amountIn()":"6bed55a6","factory()":"c45a0155","getOut(uint256,address[])":"b49fc583","initiateFlashSwap(address,uint256,address[])":"65e142b5","initiator()":"5c39fcc1","path(uint256)":"af6d1fe4","rescueTokens(address,uint256)":"57376198","router()":"f887ea40","uniswapV2Call(address,uint256,uint256,bytes)":"10d1e85c"},"id":8}