{"abi":[{"type":"constructor","inputs":[],"stateMutability":"nonpayable"},{"type":"function","name":"amountIn","inputs":[],"outputs":[{"name":"","type":"uint256","internalType":"uint256"}],"stateMutability":"view"},{"type":"function","name":"factory","inputs":[],"outputs":[{"name":"","type":"address","internalType":"contract IUniswapV2Factory"}],"stateMutability":"view"},{"type":"function","name":"initiateFlashSwap","inputs":[{"name":"_tokenBorrow","type":"address","internalType":"address"},{"name":"_amount","type":"uint256","internalType":"uint256"},{"name":"_path","type":"address[]","internalType":"address[]"}],"outputs":[],"stateMutability":"nonpayable"},{"type":"function","name":"initiator","inputs":[],"outputs":[{"name":"","type":"address","internalType":"address"}],"stateMutability":"view"},{"type":"function","name":"path","inputs":[{"name":"","type":"uint256","internalType":"uint256"}],"outputs":[{"name":"","type":"address","internalType":"address"}],"stateMutability":"view"},{"type":"function","name":"rescueTokens","inputs":[{"name":"_token","type":"address","internalType":"address"},{"name":"_amount","type":"uint256","internalType":"uint256"}],"outputs":[],"stateMutability":"nonpayable"},{"type":"function","name":"router","inputs":[],"outputs":[{"name":"","type":"address","internalType":"contract IUniswapV2Router02"}],"stateMutability":"view"},{"type":"function","name":"uniswapV2Call","inputs":[{"name":"sender","type":"address","internalType":"address"},{"name":"amount0","type":"uint256","internalType":"uint256"},{"name":"amount1","type":"uint256","internalType":"uint256"},{"name":"data","type":"bytes","internalType":"bytes"}],"outputs":[],"stateMutability":"nonpayable"},{"type":"event","name":"FlashSwapInitiated","inputs":[{"name":"tokenBorrow","type":"address","indexed":false,"internalType":"address"},{"name":"amount","type":"uint256","indexed":false,"internalType":"uint256"},{"name":"path","type":"address[]","indexed":false,"internalType":"address[]"}],"anonymous":false},{"type":"event","name":"ProfitGenerated","inputs":[{"name":"profit","type":"uint256","indexed":false,"internalType":"uint256"}],"anonymous":false},{"type":"event","name":"SwapCompleted","inputs":[{"name":"amountOut","type":"uint256","indexed":false,"internalType":"uint256"}],"anonymous":false},{"type":"error","name":"AddressEmptyCode","inputs":[{"name":"target","type":"address","internalType":"address"}]},{"type":"error","name":"AddressInsufficientBalance","inputs":[{"name":"account","type":"address","internalType":"address"}]},{"type":"error","name":"FailedInnerCall","inputs":[]},{"type":"error","name":"SafeERC20FailedOperation","inputs":[{"name":"token","type":"address","internalType":"address"}]}],"bytecode":{"object":"0x60c0604052348015600f57600080fd5b50735c69bee701ef814a2b6a3edd4b1652cb9cc5aa6f608052737a250d5630b4cf539739df2c5dacb4c659f2488d60a05260805160a0516112b261007a6000396000818161014e01526109d701526000818161012701528181610267015261065e01526112b26000f3fe608060405234801561001057600080fd5b50600436106100885760003560e01c80636bed55a61161005b5780636bed55a6146100f8578063af6d1fe41461010f578063c45a015514610122578063f887ea401461014957600080fd5b806310d1e85c1461008d57806357376198146100a25780635c39fcc1146100b557806365e142b5146100e5575b600080fd5b6100a061009b366004610d0f565b610170565b005b6100a06100b0366004610da5565b6104d2565b6002546100c8906001600160a01b031681565b6040516001600160a01b0390911681526020015b60405180910390f35b6100a06100f3366004610dd1565b61054a565b61010160015481565b6040519081526020016100dc565b6100c861011d366004610e5d565b610950565b6100c87f000000000000000000000000000000000000000000000000000000000000000081565b6100c87f000000000000000000000000000000000000000000000000000000000000000081565b6000336001600160a01b0316630dfe16816040518163ffffffff1660e01b8152600401602060405180830381865afa1580156101b0573d6000803e3d6000fd5b505050506040513d601f19601f820116820180604052508101906101d49190610e76565b90506000336001600160a01b031663d21220a76040518163ffffffff1660e01b8152600401602060405180830381865afa158015610216573d6000803e3d6000fd5b505050506040513d601f19601f8201168201806040525081019061023a9190610e76565b60405163e6a4390560e01b81526001600160a01b03848116600483015280831660248301529192506000917f0000000000000000000000000000000000000000000000000000000000000000169063e6a4390590604401602060405180830381865afa1580156102ae573d6000803e3d6000fd5b505050506040513d601f19601f820116820180604052508101906102d29190610e76565b9050336001600160a01b038216146103205760405162461bcd60e51b815260206004820152600c60248201526b155b985d5d1a1bdc9a5e995960a21b60448201526064015b60405180910390fd5b6001600160a01b03881630146103785760405162461bcd60e51b815260206004820152601c60248201527f53656e646572206d757374206265207468697320636f6e7472616374000000006044820152606401610317565b6000808061038887890189610efe565b925092509250600061039a838361097a565b90507f02f857175b5562dc8e8fe1cc6d39215bf823a07a685f52fba82f1e637d418513816040516103cd91815260200190565b60405180910390a160006103e56103e5856003610fd1565b6103ef9190610fe8565b6103fa90600161100a565b90506000610408828661100a565b905061041e6001600160a01b0387163383610a8e565b808311156104c2576000610432828561101d565b905061048d600260009054906101000a90046001600160a01b031682876001895161045d919061101d565b8151811061046d5761046d611030565b60200260200101516001600160a01b0316610a8e9092919063ffffffff16565b6040518181527fcb3b7311e1762fa145efce6ad1e9a8c6a046723e9cab70d3a0753bba5326edd39060200160405180910390a1505b5050505050505050505050505050565b6002546001600160a01b0316331461052c5760405162461bcd60e51b815260206004820181905260248201527f4f6e6c7920696e69746961746f722063616e2072657363756520746f6b656e736044820152606401610317565b600254610546906001600160a01b03848116911683610a8e565b5050565b600281101561059b5760405162461bcd60e51b815260206004820181905260248201527f50617468206d7573742068617665206174206c65617374203220746f6b656e736044820152606401610317565b836001600160a01b0316828260008181106105b8576105b8611030565b90506020020160208101906105cd9190611046565b6001600160a01b0316146106365760405162461bcd60e51b815260206004820152602a60248201527f466972737420746f6b656e20696e2070617468206d75737420626520626f727260448201526937bbb2b2103a37b5b2b760b11b6064820152608401610317565b600183905561064760008383610c82565b50600280546001600160a01b0319163317905560007f00000000000000000000000000000000000000000000000000000000000000006001600160a01b031663e6a43905868585600181811061069f5761069f611030565b90506020020160208101906106b49190611046565b6040516001600160e01b031960e085901b1681526001600160a01b03928316600482015291166024820152604401602060405180830381865afa1580156106ff573d6000803e3d6000fd5b505050506040513d601f19601f820116820180604052508101906107239190610e76565b90506001600160a01b0381166107715760405162461bcd60e51b815260206004820152601360248201527214185a5c88191bd95cc81b9bdd08195e1a5cdd606a1b6044820152606401610317565b6000816001600160a01b0316630dfe16816040518163ffffffff1660e01b8152600401602060405180830381865afa1580156107b1573d6000803e3d6000fd5b505050506040513d601f19601f820116820180604052508101906107d59190610e76565b90506000826001600160a01b031663d21220a76040518163ffffffff1660e01b8152600401602060405180830381865afa158015610817573d6000803e3d6000fd5b505050506040513d601f19601f8201168201806040525081019061083b9190610e76565b90506000826001600160a01b0316886001600160a01b03161461085f576000610861565b865b90506000826001600160a01b0316896001600160a01b031614610885576000610887565b875b90506000898989896040516020016108a29493929190611063565b60405160208183030381529060405290507fac284dc20a8bd8d32bbdff3f9b31522e1d58a5584b7ce48218fefe3d6ded942d8a8a8a8a6040516108e89493929190611063565b60405180910390a160405163022c0d9f60e01b81526001600160a01b0387169063022c0d9f906109229086908690309087906004016110ea565b600060405180830381600087803b15801561093c57600080fd5b505af11580156104c2573d6000803e3d6000fd5b6000818154811061096057600080fd5b6000918252602090912001546001600160a01b0316905081565b60006002825110156109bd5760405162461bcd60e51b815260206004820152600c60248201526b092dcecc2d8d2c840e0c2e8d60a31b6044820152606401610317565b6040516338ed173960e01b81526000906001600160a01b037f000000000000000000000000000000000000000000000000000000000000000016906338ed173990610a14908790859088903090429060040161113a565b6000604051808303816000875af1158015610a33573d6000803e3d6000fd5b505050506040513d6000823e601f3d908101601f19168201604052610a5b91908101906111ad565b90508060018251610a6c919061101d565b81518110610a7c57610a7c611030565b60200260200101519150505b92915050565b604080516001600160a01b038416602482015260448082018490528251808303909101815260649091019091526020810180516001600160e01b031663a9059cbb60e01b179052610ae0908490610ae5565b505050565b6000610afa6001600160a01b03841683610b48565b90508051600014158015610b1f575080806020019051810190610b1d919061123e565b155b15610ae057604051635274afe760e01b81526001600160a01b0384166004820152602401610317565b6060610b5683836000610b5d565b9392505050565b606081471015610b825760405163cd78605960e01b8152306004820152602401610317565b600080856001600160a01b03168486604051610b9e9190611260565b60006040518083038185875af1925050503d8060008114610bdb576040519150601f19603f3d011682016040523d82523d6000602084013e610be0565b606091505b5091509150610bf0868383610bfa565b9695505050505050565b606082610c0f57610c0a82610c56565b610b56565b8151158015610c2657506001600160a01b0384163b155b15610c4f57604051639996b31560e01b81526001600160a01b0385166004820152602401610317565b5080610b56565b805115610c665780518082602001fd5b604051630a12f52160e11b815260040160405180910390fd5b50565b828054828255906000526020600020908101928215610cd5579160200282015b82811115610cd55781546001600160a01b0319166001600160a01b03843516178255602090920191600190910190610ca2565b50610ce1929150610ce5565b5090565b5b80821115610ce15760008155600101610ce6565b6001600160a01b0381168114610c7f57600080fd5b600080600080600060808688031215610d2757600080fd5b8535610d3281610cfa565b94506020860135935060408601359250606086013567ffffffffffffffff80821115610d5d57600080fd5b818801915088601f830112610d7157600080fd5b813581811115610d8057600080fd5b896020828501011115610d9257600080fd5b9699959850939650602001949392505050565b60008060408385031215610db857600080fd5b8235610dc381610cfa565b946020939093013593505050565b60008060008060608587031215610de757600080fd5b8435610df281610cfa565b935060208501359250604085013567ffffffffffffffff80821115610e1657600080fd5b818701915087601f830112610e2a57600080fd5b813581811115610e3957600080fd5b8860208260051b8501011115610e4e57600080fd5b95989497505060200194505050565b600060208284031215610e6f57600080fd5b5035919050565b600060208284031215610e8857600080fd5b8151610b5681610cfa565b634e487b7160e01b600052604160045260246000fd5b604051601f8201601f1916810167ffffffffffffffff81118282101715610ed257610ed2610e93565b604052919050565b600067ffffffffffffffff821115610ef457610ef4610e93565b5060051b60200190565b600080600060608486031215610f1357600080fd5b8335610f1e81610cfa565b92506020848101359250604085013567ffffffffffffffff811115610f4257600080fd5b8501601f81018713610f5357600080fd5b8035610f66610f6182610eda565b610ea9565b81815260059190911b82018301908381019089831115610f8557600080fd5b928401925b82841015610fac578335610f9d81610cfa565b82529284019290840190610f8a565b80955050505050509250925092565b634e487b7160e01b600052601160045260246000fd5b8082028115828204841417610a8857610a88610fbb565b60008261100557634e487b7160e01b600052601260045260246000fd5b500490565b80820180821115610a8857610a88610fbb565b81810381811115610a8857610a88610fbb565b634e487b7160e01b600052603260045260246000fd5b60006020828403121561105857600080fd5b8135610b5681610cfa565b6001600160a01b03858116825260208083018690526060604084018190528301849052600091859160808501845b878110156110b85784356110a481610cfa565b841682529382019390820190600101611091565b509998505050505050505050565b60005b838110156110e15781810151838201526020016110c9565b50506000910152565b84815283602082015260018060a01b038316604082015260806060820152600082518060808401526111238160a08501602087016110c6565b601f01601f19169190910160a00195945050505050565b600060a08201878352602087602085015260a0604085015281875180845260c08601915060208901935060005b8181101561118c5784516001600160a01b031683529383019391830191600101611167565b50506001600160a01b03969096166060850152505050608001529392505050565b600060208083850312156111c057600080fd5b825167ffffffffffffffff8111156111d757600080fd5b8301601f810185136111e857600080fd5b80516111f6610f6182610eda565b81815260059190911b8201830190838101908783111561121557600080fd5b928401925b828410156112335783518252928401929084019061121a565b979650505050505050565b60006020828403121561125057600080fd5b81518015158114610b5657600080fd5b600082516112728184602087016110c6565b919091019291505056fea264697066735822122008a25141c9574625b8ada40125e49e2dc38e31d02b8b5d56a820cb4126dc6dc664736f6c63430008190033","linkReferences":{}},"methodIdentifiers":{"amountIn()":"6bed55a6","factory()":"c45a0155","initiateFlashSwap(address,uint256,address[])":"65e142b5","initiator()":"5c39fcc1","path(uint256)":"af6d1fe4","rescueTokens(address,uint256)":"57376198","router()":"f887ea40","uniswapV2Call(address,uint256,uint256,bytes)":"10d1e85c"},"id":8}